:020000040800F2
:10000000E01A0020210200087B190008F3160008FE
:100010007919000817040008511C000800000000AE
:10002000000000000000000000000000890100083E
:100030001904000800000000CD010008851900081F
:100040003B0200083B0200083B0200083B0200089C
:100050003B0200083B0200083B0200083B0200088C
:100060001B0400083B0200083B0200083B0200089A
:100070003B0200083B0200083B0200083B0200086C
:100080003B0200083B0200083B0200083B0200085C
:10009000451C00083B0200083B0200083B02000828
:1000A0003B020008111A00083B0200083B0200084E
:1000B0003B0200081D1A00083B0200083B02000832
:1000C0003B0200083B0200083B0200083B0200081C
:1000D0003B0200083B0200083B0200083B0200080C
:1000E0003B0200083B0200083B02000800F002F857
:1000F00000F03AF80AA090E8000C82448344AAF188
:100100000107DA4501D100F02FF8AFF2090EBAE885
:100110000F0013F0010F18BFFB1A43F0010318473B
:100120000C3300002C330000103A24BF78C878C18B
:10013000FAD8520724BF30C830C144BF04680C60ED
:10014000704700000023002400250026103A28BF35
:1001500078C1FBD8520728BF30C148BF0B60704739
:100160001FB51FBD10B510BD00F01BF91146FFF7FC
:10017000F7FF01F07EFD00F039F903B4FFF7F2FF5D
:1001800003BC00F041F90000224B19680868B0E890
:10019000F00F80F30988BFF36F8F4FF0000080F3FA
:1001A00011884EF00D0E70470000000006480068F0
:1001B000006880F3088862B661B6BFF34F8FBFF363
:1001C0006F8F00DF00BF00BF08ED00E0EFF3098094
:1001D000BFF36F8F0F4B1A6820E9F00F106008B55E
:1001E0004FF0500080F31188BFF34F8FBFF36F8F34
:1001F00002F0C6FB4FF0000080F31188BDE8084014
:1002000019680868B0E8F00F80F30988BFF36F8FB2
:10021000704700BF18000020EFF305807047000012
:100220000948804709480047FEE7FEE7FEE7FEE78A
:10023000FEE7FEE7FEE7FEE7FEE7FEE704480549C6
:10024000054A064B704700000F1A0008ED00000831
:10025000E0140020E01A0020E0160020E016002044
:10026000032A40F2308010F0030C00F0158011F8E2
:10027000013BBCF1020F624498BF11F801CB00F8BA
:10028000013B38BF11F8013BA2F1040298BF00F80E
:1002900001CB38BF00F8013B11F0030300F02580CB
:1002A000083AC0F0088051F8043B083A51F804CBF2
:1002B000A0E80810F5E7121D5CBF51F8043B40F8B8
:1002C000043BAFF30080D20724BF11F8013B11F8C3
:1002D00001CB48BF11F8012B24BF00F8013B00F807
:1002E00001CB48BF00F8012B704710B5203AC0F091
:1002F0000B80B1E81850203AA0E81850B1E8185027
:10030000A0E81850BFF4F5AF5FEA027C24BFB1E863
:100310001850A0E8185044BF18C918C0BDE81040D4
:100320005FEA827C24BF51F8043B40F8043B08BFDD
:100330007047D20728BF31F8023B48BF11F8012BA4
:1003400028BF20F8023B48BF00F8012B70474FF050
:10035000000200B5134694469646203922BFA0E815
:100360000C50A0E80C50B1F12001BFF4F7AF090721
:1003700028BFA0E80C5048BF0CC05DF804EB890012
:1003800028BF40F8042B08BF704748BF20F8022B55
:1003900011F0804F18BF00F8012B7047704770476D
:1003A0007047754600F02CF8AE4605006946534686
:1003B00020F00700854618B020B5FFF73FFFBDE8E5
:1003C00020404FF000064FF000074FF000084FF0BC
:1003D000000B21F00701AC46ACE8C009ACE8C0094D
:1003E000ACE8C009ACE8C0098D46704710B50446BA
:1003F000AFF300802046BDE81040FFF7BEBE00000E
:10040000004870477C14002001491820ABBEFEE76D
:10041000260002007047FEE77047042000F0DAB9BA
:1004200072B6FEE770472DE9F05F054600680024CC
:100430004669D0F804908768D0F80CB0D0F810A0C6
:10044000D0F81880F10748D0F90714D00121816055
:10045000B80703D5284600F0B5F90CE0780702D5B7
:100460004FF4006407E0380702D54FF4805402E0EF
:10047000284600F0A6F9F80516D529684FF48070D3
:100480008860B80503D5284600F09EF90CE0780591
:1004900002D544F4005407E0380502D544F4804402
:1004A00002E0284600F08FF9F80316D529684FF4CA
:1004B00080308860B80303D5284600F087F90CE047
:1004C000780302D544F4004407E0380302D544F42D
:1004D000803402E0284600F078F9300707D55FEA5B
:1004E000CB6004D52968102044F40074C8607007FC
:1004F0004FF0080707D55FEA0B7004D52868C7607E
:10050000284600F059F9B00706D52868C06880076A
:1005100002D0284600F051F9700607D55FEACA609C
:1005200004D52968102044F480640861B00607D51A
:100530005FEA0A7004D528680761284600F03EF992
:10054000F00606D528680069800702D0284600F02A
:1005500036F9B00308D55FEAC96005D529681020CF
:100560004860284600F02CF9F00307D55FEA0970CF
:1005700004D528684760284600F029F9300446D59C
:100580005FEA497040D5F00504D55FEAC87001D034
:1005900044F00104B00504D55FEA887001D544F049
:1005A0000204700504D55FEA487001D544F00404E4
:1005B000300529D518F0700F26D008F070004028BB
:1005C00015D006DC102809D020280AD0302816D1F2
:1005D0000AE050280ED0602811D10EE044F0080443
:1005E0000DE044F010040AE044F0200407E044F079
:1005F000400404E044F0800401E044F4807428687E
:10060000816921F070018161296804204860002C13
:1006100005D0686A204368622846FFF703FFBDE8FB
:10062000F09F70B5040003D094F8200010B104E0EE
:10063000012070BD204600F081F82068016841F07B
:100640000101016000F0C8F90546052604E000F04C
:10065000C3F9401B0A2811D820684068C007F6D0AB
:100660002068016821F00201016000F0B5F905463B
:100670000BE000F0B1F9401B0A2806D9606A40F48B
:100680000030606284F82060D2E72068406880070C
:10069000EFD4207E0128206801683DD021F0800140
:1006A0000160607E01282068016838D021F0400197
:1006B0000160A07E01282068016833D021F020016C
:1006C0000160E07E0128206801682ED041F0100111
:1006D0000160207F01282068016829D021F00801ED
:1006E0000160607F01282068016824D021F00401A6
:1006F0000160D4E902010843D4E90412114308431C
:100700006168491E08432168C861002060620120B9
:1007100084F82000002070BD41F08001C0E741F066
:100720004001C5E741F02001CAE721F01001CFE701
:1007300041F00801D4E741F00401D9E710B586B0D3
:1007400000210091019102910391006817498842AC
:100750002AD11748C16941F00071C161C16901F036
:1007600000710491816941F0040181618069114C3B
:1007700000F0040004904FF40060009069462046A9
:1007800000F034F8A01400900220019003200390A0
:100790006946204600F02AF800220521142000F0C6
:1007A000B3F9142000F0A2F906B010BD00640040B7
:1007B00000100240000801407047704770477047C2
:1007C0007047704770477047704770477047704771
:1007D00070470000044910B50A68024202D0086060
:1007E000FFF7F6FF10BD0000140401402DE9F84F9B
:1007F000DFF8B8910024A9F1040B23460F2709F173
:10080000040AABF1040EC9E00125A5402A40AA4222
:100810007DD1674ED1F804C0ACEB0608B44532D0A8
:1008200014DCBCF1030F3AD009DCBCF1000F2AD074
:10083000BCF1010F1CD0BCF1020F31D11DE0BCF1A5
:10084000110F17D0BCF1120F2AD119E0B8F5881F8B
:1008500019D006DCB8F5803F15D0B8F5801F1FD140
:1008600011E0B8F5001F0ED0B8F5041F18D10AE04A
:10087000CB6815E0CB681B1D12E0CB6808330FE096
:10088000CB680C330CE08B682BB1012B4FF00803C5
:1008900003D0456104E0042302E0056100E0002389
:1008A000FF2A01D8064601E000F104064FEA84055C
:1008B00001D9A5F12005D6F8008007FA05FC28EA41
:1008C0000C0803FA05F548EA0508C6F800804D68EB
:1008D000ED0062D5374DAE6946F00106AE61AD69F7
:1008E00024F0030605F001050095334D06EB050CD9
:1008F000DCF80850A607360F07FA06F825EA0805BF
:10090000DFF8B880404503D14FF0000817E044E01D
:10091000DFF8AC80404502D14FF001080FE0DFF86E
:10092000A480404502D14FF0020808E0DFF898802B
:10093000404502D14FF0030801E04FF0040808FAE7
:1009400006F848EA0508CCF808804D68D9F8006038
:10095000ED024D4601D5164300E096432E604D68EA
:10096000DAF80060AD02554601D5164300E0964323
:100970002E604D68DBF80060AD035D4601D516437F
:1009800000E096432E604D68DEF80060ED0375468A
:1009900001D5164300E096432E60641C0D682A467C
:1009A000E5407FF431AFBDE8F88F00000804014056
:1009B000000011100010024000000140000801403A
:1009C000000C014000100140001401400AB1016117
:1009D00070470904FBE70000014880687047000089
:1009E0000800002002488168027811448160704745
:1009F00008000020074810B5016841F010010160AF
:100A0000032000F0A1F80F2000F006F800F04AF8EB
:100A1000002010BD0020024030B505461C4887B0BC
:100A2000816941F400618161806906A900F4006078
:100A3000009001A800F030F900F04EF91549164A6F
:100A4000B0FBF1F11548491E0260416040F2E73207
:100A50000021C0E903218160816100F0CDFB040029
:100A600012D10E4800F014FC04000DD1192000F042
:100A70003DF8102D07D200222946192000F044F835
:100A80000748056000E0012407B0204630BD0000A3
:100A90000010024040420F00002C0140440600209C
:100AA0000C0000200F4808B5816941F00101816107
:100AB000816901F001010091C16941F08051C1617A
:100AC000C069002200F0805000900F21901E00F0BD
:100AD0001BF80548416821F0E06141F00071416078
:100AE00008BD00000010024000000140002809DBA2
:100AF00000F01F02012191404009800000F1E02038
:100B0000C0F8001170470000F0B40E4B1B680C4693
:100B1000C3F30223C3F10705042D00D90425191DD1
:100B2000072901D2002300E0DB1E012606FA05F1A9
:100B3000491E214099409E40761E16403143F0BC2C
:100B400001F087B80CED00E0064900F007020868E4
:100B50004FF6FF03184040EA0220034A10430860A2
:100B6000704700000CED00E00000FA052DE9F047A9
:100B70000F46050061D0434E306800F00700B842D0
:100B800009D2306820F0070038433060306800F048
:100B90000700B84251D128683B4C810712D5400765
:100BA00003D5606840F4E06060602878000703D5F2
:100BB000606840F4605060606068A96820F0F000F0
:100BC000084360602878C00728D06868012810D0E2
:100BD0002168022810D0890700292EDA616821F0E7
:100BE000030101436160FFF7F7FE804641F2883957
:100BF0000DE021688903EFE78901EDE7FFF7ECFEDF
:100C0000A0EB0801494502D90320BDE8F0876068E0
:100C1000696800F00C00B0EB810FEFD1306800F094
:100C20000700B8420BD9306820F007003843306025
:100C3000306800F00700B84201D00120E5E72878CD
:100C4000400705D56068E96820F4E060084360600B
:100C50002878000706D56068296920F4605040EACA
:100C6000C100606000F048F86168084AC1F30311F0
:100C7000515CC8400649086006480068FFF7CCFE92
:100C80000020C2E7002002400010024006340008A5
:100C9000140000200C0000200F2202600C4A536850
:100CA00003F003034360536803F0F0038360536869
:100CB00003F4E063C36052684FF4E06303EAD202D6
:100CC00002610448006800F00700086070470000F7
:100CD00000100240002002400448054900684968AD
:100CE000044AC1F3C221515CC8407047140000207F
:100CF00000100240163400080E4A51680E4801F0F8
:100D00000C03042B11D0082B0FD10C48C1F38343E3
:100D1000C903C05C0AD55168084AC1F34041921E1C
:100D2000515C054A5043B0FBF1F070470449484319
:100D3000704700000010024000127A00F6330008ED
:100D400000093D002DE9F84F040070D02078C04D17
:100D5000C00749D06868C0F38100012807D06868DF
:100D6000C0F38100022809D16868C00306D528684D
:100D7000800339D560680028E7D035E06068B0F5B9
:100D8000803F0BD010B1B0F5A02F11D0286820F40F
:100D900080302860286820F4802002E0286840F431
:100DA00080302860606890B1FFF716FE06460AE0C2
:100DB000286840F480202860F0E700BFFFF70CFEB1
:100DC000801B642873D828688003F7D50CE0FFF7F0
:100DD00003FE064605E000BFFFF7FEFD801B64280A
:100DE000F0D828688003F7D420789A4E80074FF017
:100DF00001094FF0000839D5686810F00C0F07D0D2
:100E00006868C0F38100022809D16868C00306D46D
:100E10002868800714D52069012808D110E02069CE
:100E2000B0B1C6F80090FFF7D7FD074605E00AE12C
:100E3000FFF7D2FDC01B0228C4D828688007F7D569
:100E40002868616920F0F80040EAC10028600DE0E0
:100E5000C6F80080FFF7C0FD074604E0FFF7BCFDC1
:100E6000C01B022823D828688007F7D42078000701
:100E70002CD57948A169D9B1C0F80090FFF7ACFD35
:100E8000074604E0FFF7A8FDC01B02280FD8686AD8
:100E90008007F7D571484FF4FA510068B0FBF1F0C4
:100EA000009000BF0098411E0091FAD20EE080E051
:100EB000C0F80080FFF790FD074604E0FFF78CFDC7
:100EC000C01B022875D8686A8007F7D420784007CD
:100ED00060D5E8690027C00008D4E86940F0805078
:100EE000E861E869012700F0805000905C480168E3
:100EF000C90513D40168834641F480710160FFF78E
:100F00006BFD824606E000BFFFF766FDA0EB0A001E
:100F100064284ED8DBF80000C005F5D5E06801284C
:100F20000AD008B1052813D0286A20F001002862F1
:100F3000286A20F0040002E0286A40F001002862DC
:100F4000E06841F2883B98B1FFF746FD82460BE02E
:100F5000286A40F004002862EEE700BFFFF73CFD7E
:100F6000A0EB0A0159455AD8286A8007F6D50CE04B
:100F7000FFF732FD824605E0FFF72EFDA0EB0A01E8
:100F800059454CD8286A8007F6D41FB1E86920F08B
:100F90008050E861E06988B36968C1F38101022982
:100FA00044D00228C6F8608004D0FFF715FD04463F
:100FB00038E034E0FFF710FD074604E0FFF70CFDD2
:100FC000C01B02282BD828688001F7D4206AB0F50E
:100FD000803F05D16868A16820F40030084368604C
:100FE000D4E908010843696821F474110843686072
:100FF000C6F86090FFF7F0FC044606E025E000BF6D
:10100000FFF7EAFC001B022809D828688001F7D501
:101010001BE000BFFFF7E0FC001B022802D9032001
:10102000BDE8F88F28688001F4D40EE00128F7D0DD
:101030006868226A00F48031914204D1616A00F448
:101040007010884201D00120EAE70020E8E70000A4
:10105000001002400000424280044242140000207E
:101060000070004070B5040009D0606A002540B1EE
:1010700025616561A56294F8510040B10CE0012042
:1010800070BD6068B0F5827FF4D0E561F2E784F866
:101090005050204600F040F8022084F851002068AB
:1010A000016821F040010160A088218900F482706C
:1010B00001F404410843A18901F400610843217C43
:1010C00001F002010843217D01F001010843218B59
:1010D00001F400710843217F01F03801084394F8BE
:1010E000201001F080010843218D01F400510843D4
:1010F00021680860A069042101EA10402168486065
:101100002068C16921F40061C1616565012084F82E
:101110005100002070BD000030B585B0002400945F
:1011200001940294039400681549884225D115481A
:10113000C16941F48041C161C16901F480410491F8
:10114000816941F00801816180690F4D00F008005C
:1011500004904FF42040009002200190032003905F
:1011600069462846FFF742FB4FF48040CDE9000472
:10117000694628460294FFF739FB05B030BD0000F0
:101180000038004000100240000C014070477047DA
:1011900070B590F83C20012A26D0012480F83C400C
:1011A000022280F83D2003685A689D6822F070068C
:1011B0000A6832435A600D4B02689A4208D0B2F175
:1011C000804F05D00A4B9A4202D00A4B9A4204D172
:1011D000496825F080031943916080F83D40002163
:1011E00080F83C10084670BD022070BD002C014004
:1011F000000400400008004010B5040003D094F83B
:101200003D0010B107E0012010BD002084F83C0033
:10121000204600F01FF8022084F83D00211D2068C0
:1012200000F002FC012084F8460084F83E0084F8B7
:101230003F0084F8400084F8410084F8420084F8BC
:10124000430084F8440084F8450084F83D00002001
:1012500010BD000008B500680B49884212D10B4848
:10126000C16941F00201C161C069002200F00200C1
:10127000009005211D20FFF747FCBDE808401D2018
:10128000FFF734BC08BD000000040040001002401D
:1012900090F83D10012901D001207047022180F80B
:1012A0003D100168CA6842F00102CA6000680B493B
:1012B000884208D0B0F1804F05D00949884202D059
:1012C0000849884204D1816801F00701062903D04A
:1012D000016841F00101016000207047002C0140CD
:1012E000000400400008004070B5044690F83C003F
:1012F0000025012817D0012684F83C60022084F8DC
:101300003D002068826822F0770222F47F428260EA
:101310000868502838D00DDC20284FD005DC90B369
:10132000102811D14AE0022070BD302846D0402854
:101330000AD13BE060282FD070280DD0B0F5805F37
:1013400003D0B0F5005F12D0012584F83D60002085
:1013500084F83C00284670BDCB68D1E901212068A3
:1013600000F098FB2068816841F0770109E0CB68C4
:10137000D1E90121206800F08DFB2068816841F4EB
:1013800080418160E1E719E0CA684968206800F09F
:1013900035FC5021206806E0CA684968206800F0E2
:1013A0003EFC6021206800F07FFBCEE7CA684968F8
:1013B000206800F023FC40212068F4E72268014601
:1013C0001046F0E7704770B50446006801694FF0B9
:1013D0000005C943890715D4C168C943890711D4D9
:1013E000E91E01610120207720688069800720467E
:1013F00002D0FFF7E7FF04E000F0C8F8204600F055
:101400006BF9257720680169C943490717D4C1687A
:10141000C943490713D46FF004010161022020770A
:101420002068806910F4407F204602D0FFF7CAFF91
:1014300004E000F0ABF8204600F04EF92577206874
:101440000169C943090716D4C168C943090712D401
:101450006FF008010161042020772068C0698007CF
:10146000204602D0FFF7AEFF04E000F08FF82046E0
:1014700000F032F9257720680169C943C90617D4FD
:10148000C168C943C90613D46FF010010161082077
:1014900020772068C06910F4407F204602D0FFF713
:1014A00091FF04E000F072F8204600F015F925776E
:1014B00020680169C943C90708D1C168C943C90780
:1014C00004D1891E0161204600F008F920680169F5
:1014D000C943090609D4C168C943090605D46FF098
:1014E000800101612046FFF751FE20680169C94370
:1014F000490609D4C168C943490605D46FF04001C3
:101500000161204600F0F4F820680169C9438906AA
:101510000BD4C168C943890607D46FF0200101616B
:101520002046BDE87040FFF732BE70BD00B585B003
:10153000002100910191029103910068B0F1804F68
:101540001BD10F48816941F00801816180696946BA
:1015500000F0080004904FF44060009002200190D9
:1015600003900848FFF742F90748416821F44071A9
:1015700041F0E06141F40071416005B000BD000040
:1015800000100240000C014000000140704770B59F
:10159000044690F83C0000260D4601280FD001209B
:1015A00084F83C006AB1042A1DD0082A2FD00C2AE6
:1015B0003FD00126002084F83C00304670BD022058
:1015C00070BD206800F078FA2068816941F0080158
:1015D00081612068816921F004018161206881694D
:1015E0002A69114311E0206800F08EFA20688169B1
:1015F00041F4006181612068816921F48061816129
:10160000206881692A6941EA02218161D2E7206864
:1016100000F0A6FA2068C16941F00801C1612068A4
:10162000C16921F00401C1612068C1692A691143BF
:1016300011E0206800F0C0FA2068C16941F400613F
:10164000C1612068C16921F48061C1612068C169FC
:101650002A6941EA0221C161ACE710B5040003D058
:1016600094F83D0010B107E0012010BD002084F87F
:101670003C00204600F01EF8022084F83D00211DA9
:10168000206800F0D1F9012084F8460084F83E007B
:1016900084F83F0084F8400084F8410084F8420058
:1016A00084F8430084F8440084F8450084F83D0041
:1016B000002010BD08B50068B0F1804F08D1054882
:1016C000C16941F00101C161C06900F001000090F1
:1016D00008BD000000100240704700000068034988
:1016E000884201D1FFF77EB970470000002C01400D
:1016F0007047FEE7704700000F4810B50D490160C4
:101700000921416000214FF480228160C0E9031269
:10171000920042610176012242768276C17601779B
:101720004177FEF77EFF002803D0BDE81040FEF7AA
:1017300077BE10BD006400403405002010B50D498F
:101740008AB00022D1E90001CDE90701012107A8F3
:1017500000F0DEFA084C07491C2260600831684638
:10176000FEF7C3FD0021684600F0A8FA20600AB029
:1017700010BD0000D033000800000020F0B585B097
:10178000002000900190029003902B48816941F065
:1017900020018161816901F020010491816941F09A
:1017A00004018161816901F004010491816941F0C2
:1017B000080181618069214E00F008000490002238
:1017C0004FF401413046FFF701F91D4F002220215F
:1017D0003846FFF7FBF8042000901A480224CDE9B0
:1017E000010469463046FFF701F8E0010125CDE923
:1017F00000050320CDE9024069463046FEF7F6FFBA
:10180000A003CDE90005CDE9025469463046FEF754
:10181000EDFF20200090CDE901546946384603943D
:10182000FEF7E4FF002205210820FFF76DF90820EC
:10183000FFF75CF905B0F0BD001002400008014060
:10184000000C014000001110114810B50F49016053
:101850004FF48271416000214FF40062C0E902122E
:101860000122C0E90412520282610822C0E9072164
:10187000416281620A21C162FFF7F4FB002803D0B4
:10188000BDE81040FEF7CCBD10BD000000380040A0
:101890005C05002010B58AB0002407941C2168461E
:1018A0000894FEF754FD19484FF08041C0E9001438
:1018B0004FF6FF71C0E9024104618461FFF7CDFE7C
:1018C00008B1FEF7ADFD079407A910480894FFF78B
:1018D0005FFC08B1FEF7A4FD6020CDE9000402948E
:1018E0000822694609480494FFF751FE08B1FEF743
:1018F00097FD0C2269460548FFF749FE08B1FEF73F
:101900008FFD0248FFF712FE0AB010BDB40500209B
:1019100010B586B0002417480094019402940394F3
:1019200004941349059401604721C0E9011440F271
:10193000E731C0E9031480218161FFF75DFC08B144
:10194000FEF76EFD4FF48050009069460948FFF79E
:10195000CBFC08B1FEF764FD049404A90548059486
:10196000FFF716FC002801D0FEF75AFD06B010BDA7
:1019700000040040FC050020FEE7FEE7012000F027
:1019800091F9FBE710B5502080F31188BFF34F8F1A
:10199000BFF36F8F01F03EFB18B104494FF0805048
:1019A0000860002080F3118810BD000004ED00E005
:1019B00030B58FB028216846FEF7C9FC14210AA86B
:1019C000FEF7C5FC01210804CDE9001000240294B3
:1019D00002250491CDE907504FF4E01009906846C4
:1019E000FFF7B0F908B172B6FEE70F20CDE90A059E
:1019F0004FF48060CDE90C4002210AA80E94FFF755
:101A0000B5F8002801D072B6FEE70FB030BD7047C0
:101A10000148FFF7D8BC0000440600200148FFF74A
:101A2000D2BC0000FC050020F0B50268164B174C34
:101A3000174D4FF08047984205D0B84203D0A042DE
:101A400001D0A84203D122F070064A68324398427E
:101A500005D0B84203D0A04201D0A84203D122F45D
:101A60004074CA6822434C6922F08002224302601B
:101A70008A68C2620A688262984201D10969016378
:101A800001214161F0BD0000002C01400004004034
:101A90000008004010B5846842EA032224F47F4421
:101AA0000A432243826010BD826822F070020A431A
:101AB00042F007018160704730B5036A026A22F084
:101AC000010202624268846924F073050C682C43A9
:101AD00023F002058B682B430A4DA8420BD123F05B
:101AE0000805CB6822F440722B434D6923F00403B0
:101AF00015438A692A4342608461496841630362ED
:101B000030BD0000002C014030B5026A036A23F0AA
:101B100010030362436884690D6824F4E64444EAD0
:101B200005248D6822F0200242EA05120B4DA842DE
:101B30000ED1CD6822F0800242EA05124D6923F4ED
:101B4000406343EA85038D6922F0400243EA85033E
:101B50004360846149688163026230BD002C0140AA
:101B600030B5036A026A22F4807202624268C46974
:101B700023F4007324F073050C682C438D6843EA4A
:101B800005230C4DA8420ED1CD6823F4006343EA2F
:101B900005234D6922F4405242EA05128D6923F46F
:101BA000806342EA05124260C4614968C16303620E
:101BB00030BD0000002C014030B5046A026A22F4F6
:101BC000805202624268C3690D6823F4E64343EA27
:101BD00005238D6824F4005444EA0534064DA842D8
:101BE00004D14D6922F4804242EA85124260C36109
:101BF00049680164046230BD002C014010B5036ADD
:101C0000046A24F001040462846924F0F00444EAC4
:101C1000021423F00A020A438461026210BD10B567
:101C2000036A046A24F010040462846923F0A003A8
:101C300024F4704444EA023243EA011182610162F1
:101C400010BD00000148FEF7EEBB00003405002087
:101C5000FEE70907090E002804DB00F1E02080F808
:101C60000014704700F00F0000F1E02080F8141D10
:101C70007047FEF7BFFEFFF79BFEFFF77FFDFFF704
:101C80003BFDFFF7E1FDFFF705FEFFF741FEFFF724
:101C900055FD00F00EF8FEE701460020842900D033
:101CA000C81C704710B500B9012000F0B5FD002038
:101CB00010BD10B500F018FE002010BD7FB50D4618
:101CC00004464169B0F9080081B1A16971B1FFF71B
:101CD000E3FFD4E905128DE80700D4E900102B4694
:101CE000226901F058F9039004B070BDFFF7D4FFEA
:101CF00003A9CDE90001208A2B4682B2D4E9001065
:101D000001F01CF9012801D00020EDE70398EBE772
:101D10001CB511C86CB1CDE90004012907D0002021
:101D200013460246012109A001F0DAFA1CBD012088
:101D3000F6E70090012907D0002013460246012152
:101D400002A001F0B3FA1CBD0120F6E7000000007C
:101D50002DE9F041184C0F46054666692068001DC4
:101D600000F02CFC38B9206890F82C100120884035
:101D7000A1698143A161681C07D137B12168BDE821
:101D8000F0410E48091D00F067BC20683544B5429B
:101D90004560216805D2A068BDE8F041091D00F04A
:101DA00043BC6068091D00F03FFC206B854200D2F7
:101DB0002563BDE8F08100001800002080070020A6
:101DC0002DE9F041054600F053FC2E4C2069401CE3
:101DD000206120682C4F10B1E06940B32DE02560F0
:101DE0002069012829D1002606EB860007EB800038
:101DF00000F00CFC761C052EF6D32348643000F06E
:101E000005FC2148783000F001FC1F488C3000F0C0
:101E1000FDFB1D48A03000F0F9FB1B48B43000F07A
:101E2000F5FB1948643060601430A06005E020685C
:101E3000E96AC06A884200D82560E06A401CE06216
:101E4000E96A0120A26988401043A06101EB81008A
:101E500007EB8000291D00F0FFFB00F029FCE06982
:101E600000280CD02068E96AC06A884207D2074976
:101E70004FF080500860BFF34F8FBFF36F8FBDE806
:101E8000F081000018000020CC06002004ED00E0E6
:101E900038B500F0EDFB104CA068C8B90F4800F051
:101EA000B5FB0E48143000F0B1FB0C482060143034
:101EB00060600A4B00202833009003F148020C2197
:101EC0000A2000F0DFFDA06010B105A100F06EFC5B
:101ED000BDE8384000F0ECBB54000020940700201F
:101EE000546D72510000000030B4026C0B46002AA1
:101EF0000BD0C1681144C1604468A14201D301689C
:101F0000C16030BC1846FEF7ABB930BC70472DE954
:101F1000F041856B174604460026026C82B1C7B1BA
:101F2000E068FEF79DF9E168206C091AE16022681B
:101F3000914202D26168081AE060022F16D017E0C1
:101F40002068A8B9606801F0C9F806460020606002
:101F50000EE0A068FEF784F9216CA0680844A06038
:101F60006168884204D32068A06001E005B16D1E5D
:101F70006D1CA5633046BDE8F08110B5044690F8AD
:101F8000510058B101280CD002280FD0502080F306
:101F90001188BFF34F8FBFF36F8FFEE7206B00F008
:101FA0009BFB2046BDE8104000F096BB10BD000032
:101FB00010484FF44061420706D0C01D0D4920F083
:101FC0000700411AC1F540610B4A00230144C2E9F0
:101FD00000030839103A21F0070111604B600B60D3
:101FE0000B1AC0E9001393604FF000405360D060BB
:101FF000704700007C08002078000020144E154C2B
:10200000A6F1A0074FF08058DFF84C9012E000BF17
:1020100000F02EFBF068C568281D00F0CFFA20699B
:10202000401E2061E068401EE06000F041FB284651
:10203000FFF7A3FFE0680028EAD138680128F9D942
:10204000C9F80080BFF34F8FBFF36F8FF2E7000036
:102050006C0700201800002004ED00E00346009803
:1020600029B10260C0E90F31012100F03FBD0060DD
:10207000F8E72DE9F0479A46DDE9098481466FF0DB
:102080000303206B03EB82021044089D20F0070637
:10209000700707D0502080F31188BFF34F8FBFF334
:1020A0006F8FFEE723180A5C83F834200A5C12B1B4
:1020B000401C1028F6D3002784F84370052D00D368
:1020C0000425E562C4E91157201D00F0AAFA04F1C5
:1020D000180000F0A6FA2461C5F105006462A06151
:1020E000E76484F8507052464946304600F054FA8E
:1020F0002060B8F1000F01D0C8F80040BDE8F087BB
:102100002DE9F0471E46DDE9089417460D0080468C
:102110000ED0002C14D0FFF7BBFEC4F80080C4E939
:102120000657C4E90869201DBDE8F04700F079BAF8
:10213000502080F31188BFF34F8FBFF36F8FFEE7FE
:10214000BDE8F08730B5114900E011460A688242C7
:10215000FBD34B685C18844203D140681844486044
:10216000084643681C18944209D1084C103C246866
:10217000A24209D052681A4442600A68126802609A
:10218000814200D0086030BD0460F9E7780000208B
:1021900070B5002441600B4D0061914206D8D11A00
:1021A0008269914206D2011D686807E09A4203D213
:1021B000994201D3012403E0011D286800F034FA9C
:1021C000204670BD5400002010B5044600F050FABF
:1021D000A06B28B15FF0000400F06AFA204610BD41
:1021E0000124F9E730B587B02C4D4EE00498002863
:1021F0004BDB069C606910B1201D00F0DFF902A8DE
:1022000000F0B8F8024604980A283ED2DFE800F051
:102210000505053D263705053D260598A1690346B8
:1022200001442046FFF7B4FF00B3616A20468847A7
:10223000E069012829D1002000900598A1690023B8
:1022400042181946204601F093F878B9502080F3DF
:102250001188BFF34F8FBFF36F8FFEE70598A06122
:1022600028B1811813462046FFF792FF0DE0502059
:1022700080F31188BFF34F8FBFF36F8FFEE794F8A1
:10228000280010B9204600F027FA002204A9A86807
:1022900000F07EFD0028A9D107B030BD5400002019
:1022A0002DE9FC410F46054600F062FB01A800F055
:1022B00061F80446019818B100F096FFBDE8FC8172
:1022C000224EAFB170680068A8B30027291B3A46B8
:1022D000B06800F07FFA00F087FF0028EED11C49BB
:1022E0004FF080500860BFF34F8FBFF36F8FE5E76B
:1022F000A542EBD800F078FF30682746C068C46874
:10230000201D00F05BF9E069012810D1A0692B467F
:1023100041193A462046FFF73BFF40B100200346F3
:10232000014600902A46204601F022F820B1616A59
:1023300020468847C2E707E0502080F31188BFF3AA
:102340004F8FBFF36F8FFEE70127BFE754000020D8
:1023500004ED00E006484168096829B14168C96890
:10236000C9684968016370474FF0FF31FAE7000020
:102370001800002070B5054600F046FE064E0446E3
:102380003069844203D200F009F8012000E0002007
:1023900028602046346170BD54000020F8B5194D06
:1023A0001FE0C068C4680668201D00F007F9616A74
:1023B00020468847E069012813D1A0693044B04223
:1023C00006D924616060211D286800F02DF908E01D
:1023D00000200346014600903246204600F0C8FF28
:1023E00038B1286801680029DBD16968C5E90010A7
:1023F000F8BD502080F31188BFF34F8FBFF36F8F6C
:10240000FEE700005400002008484068401C4FF0E0
:10241000500080F3118804D0BFF34F8FBFF36F8F4C
:10242000FEE7BFF34F8FBFF36F8FFEE78000002002
:10243000074C2068016841B1C0680021D0F8000055
:10244000FFF72EFFFFF7CEFEF3E701210020F7E7AD
:10245000540000202DE9F041044600F009F994F9F8
:10246000455004F1240609E0606A48B1304600F0A6
:1024700081FE08B100F0FEF96D1E6DB2002DF3DC97
:102480004FF0FF3684F8456000F012F900F0F0F8E4
:1024900094F9445004F1100709E0206948B1384626
:1024A00000F068FE08B100F0E5F96D1E6DB2002D78
:1024B000F3DC84F84460BDE8F04100F0F9B80000B6
:1024C0002DE9F0410546002700F052FA314E306800
:1024D00008B9FFF76DFDF06805424BD1C5B308356B
:1024E00068070ED005F00700C0F108000544680732
:1024F00007D0502080F31188BFF34F8FBFF36F8F49
:10250000FEE72DB37068854234D82248103001466A
:102510000C6801E020460C466168A94202D221689D
:102520000029F7D131688C4224D007682168016006
:1025300060680837411B10290FD96019420708D07D
:10254000502080F31188BFF34F8FBFF36F8FFEE7EA
:1025500010E041606560FFF7F5FD61687068401A42
:102560007060B268904200D2B060F0680143002011
:10257000C4E9000100F038FE780707D0502080F34E
:102580001188BFF34F8FBFF36F8FFEE73846BDE86A
:10259000F08100006800002010B5031F4FF0807428
:1025A0001C601B1F21F001011960191F024B0B60F9
:1025B000143940380A6010BD09240008D0E90132FE
:1025C00001699A60D0E901235A604A68824201D1C8
:1025D00082684A60002202610868401E086008683C
:1025E00070470000034B036003F154000860802033
:1025F000106070478C000020034B036003F154000F
:102600000860802010607047E002002000F108019F
:102610004FF0FF32C0E90112C16001610021016089
:10262000704700210161704730B50B685A1C02D019
:1026300000F1080202E0026904E0224654682568BD
:102640009D42FAD953684B6099608A605160086175
:102650000168491C016030BD42684A6093688B6024
:1026600093685960916008610168491C0160704776
:10267000502080F31188BFF34F8FBFF36F8F0A494B
:102680004868401C486001280CD10848006810F0D8
:10269000FF0F07D0502080F31188BFF34F8FBFF397
:1026A0006F8FFEE7704700008000002004ED00E01F
:1026B0000849486828B1401E486001D180F311885C
:1026C0007047502080F31188BFF34F8FBFF36F8F97
:1026D000FEE700008000002070B5002827D0144DD0
:1026E000A0F108046168E868014207D1502080F336
:1026F0001188BFF34F8FBFF36F8FFEE722683AB1A7
:10270000502080F31188BFF34F8FBFF36F8FFEE728
:102710008143616000F02CF9606869680844686072
:102720002046FFF70FFDBDE8704000F05DBD70BDB5
:10273000680000204FF0E02000210161816105491F
:102740004FF47A720968B1FBF2F1491E4161072129
:10275000016170471400002010B5FDF75DFD1149BF
:1027600010280ED300F1E02090F8F0030A78904290
:1027700007D2502080F31188BFF34F8FBFF36F8FC4
:10278000FEE709480068896800F4E060884207D9DC
:10279000502080F31188BFF34F8FBFF36F8FFEE798
:1027A00010BD0000800000200CED00E010B5084BCB
:1027B000002200BF53F832401CB1521C082AF9D342
:1027C00010BD43F8321003EBC201486010BD000099
:1027D0008C06002070B515460E460446FFF748FFEC
:1027E00094F944100020491C01D184F8440094F964
:1027F0004510491C01D184F84500FFF759FFA06B33
:1028000028B92A46314604F1240000F051F8204648
:10281000BDE87040FFF71EBE10B5020014D00F488F
:10282000806B38B1502080F31188BFF34F8FBFF316
:102830006F8FFEE700F09CF800211046FFF788FA42
:1028400000F0D2FC002807D105494FF08050086005
:10285000BFF34F8FBFF36F8F10BD00001800002033
:1028600004ED00E002498A6A0260496941607047EC
:10287000180000200149012048627047180000201C
:1028800010B50C4650B1094909681831FFF7CCFE64
:102890002046BDE810400121FFF75ABA502080F3CE
:1028A0001188BFF34F8FBFF36F8FFEE71800002032
:1028B00070B514460D4668B10A4909681831FFF72A
:1028C000CBFE0CB14FF0FF3521462846BDE87040E5
:1028D000FFF73EBA502080F31188BFF34F8FBFF34C
:1028E0006F8FFEE71800002030B587B000240394F6
:1028F00005AA04A903A80494FFF774FEDDE9030107
:102900000094CDE90110002315A11748059A00F0A5
:1029100042FB164D002868631FD000F0F9FC012827
:1029200009D0401C19D1502080F31188BFF34F8F7C
:10293000BFF36F8FFEE7502080F31188BFF34F8FF6
:10294000BFF36F8F4FF0FF3028630120E8616C61A7
:1029500007B0BDE8304000F041B807B030BD00001E
:1029600049444C4500000000FD1F000818000020ED
:102970000248816B491C81637047000018000020E9
:102980001448816B11B101214162704700214162FD
:102990008169B1FA81F1C1F11F0101EB81020E4998
:1029A00051F822306BB101EB820101F108034A6852
:1029B00052684A609A4201D152684A60D168016007
:1029C0007047502080F31188BFF34F8FBFF36F8F94
:1029D000FEE7000018000020CC0600201CB52649A8
:1029E00008780190FF20087008788DF800009DF8A5
:1029F00000009DF8002000F0F000904207D0502029
:102A000080F31188BFF34F8FBFF36F8FFEE79DF800
:102A100000001A4B00F0500018700720986005E085
:102A20009DF8002052008DF80020401E9DF80020E7
:102A30001206F5D49860032807D0502080F311883F
:102A4000BFF34F8FBFF36F8FFEE74FF44070986076
:102A5000019808700A48016841F47001016001683A
:102A600041F070410160FFF765FE00205860FDF7FE
:102A70009DFB00201CBD000000E400E08000002061
:102A800020ED00E038B5049D18B153B1CAB181B151
:102A900020E0502080F31188BFF34F8FBFF36F8F7A
:102AA000FEE7502080F31188BFF34F8FBFF36F8F85
:102AB000FEE7502080F31188BFF34F8FBFF36F8F75
:102AC000FEE739B1502080F31188BFF34F8FBFF379
:102AD0006F8FFEE748241C46012384F846302B46BE
:102AE0000094FFF7BBFA204638BD000070B50D46D4
:102AF000040025D0FFF7BCFDD4E90F20216802FBBC
:102B0000001161600021A1632168A1600A46D4E937
:102B10000F01401E00FB0121E16021464FF0FF3014
:102B200001F8440F487004F110008DB1FFF76EFDFD
:102B300004F12400FFF76AFDFFF7BAFD012070BD24
:102B4000502080F31188BFF34F8FBFF36F8FFEE7E4
:102B500021690029F0D000F00DFB0028ECD00449D9
:102B60004FF080500860BFF34F8FBFF36F8FE3E7E4
:102B700004ED00E02DE9FF4782B01D468A464FF084
:102B80000008040003D0BAF1000F08D011E0502073
:102B900080F31188BFF34F8FBFF36F8FFEE7206C78
:102BA00038B1502080F31188BFF34F8FBFF36F8F80
:102BB000FEE7022D0AD1E06B012807D0502080F3F8
:102BC0001188BFF34F8FBFF36F8FFEE700F00EFA4F
:102BD0003F4F4FF000094FF0805648B9049838B184
:102BE000502080F31188BFF34F8FBFF36F8FFEE744
:102BF000FFF73EFDA06BE16B884207D3022D05D0A5
:102C00000498D0B1B8F1000F1AD01EE02A46514600
:102C10002046FFF77CF9616A19B104F1240000F045
:102C2000A9FA20B13E60BFF34F8FBFF36F8FFFF75C
:102C30003FFD012006B0BDE8F087FFF739FD22E037
:102C40006846FFF70FFE4FF00108FFF731FDFFF771
:102C50008FFEFFF70DFD94F94400401C01D184F86C
:102C6000449094F94500401C01D184F84590FFF749
:102C70001FFD04A9684600F027F930B12046FFF790
:102C8000E9FB00F0B1FA0020D4E7FFF7F1FCA06BFC
:102C9000E16B884213D1FFF70BFD04F1100004999A
:102CA000FFF7EEFD2046FFF7D5FB00F09DFA002868
:102CB0009ED13E60BFF34F8FBFF36F8F98E7FFF752
:102CC000F7FC2046FFF7C6FB00F08EFA90E7000005
:102CD00004ED00E02DE9F0471F46904689460400C8
:102CE00003D0B9F1000F08D011E0502080F3118813
:102CF000BFF34F8FBFF36F8FFEE7206C38B15020CA
:102D000080F31188BFF34F8FBFF36F8FFEE7022F61
:102D10000AD1E06B012807D0502080F31188BFF35F
:102D20004F8FBFF36F8FFEE7FFF716FD5020EFF3D5
:102D3000118680F31188BFF34F8FBFF36F8FA06BA5
:102D4000E16B884206D3022F04D0002086F311885D
:102D5000BDE8F08794F945503A4649462046FFF7CA
:102D6000D6F8681C04D06D1C84F845500120EDE7AE
:102D7000606A0028FAD004F1240000F0FBF9002872
:102D8000F4D0B8F1000FF1D00121C8F80010EDE740
:102D90002DE9F747002683B08A46040003D0BAF134
:102DA000000F08D011E0502080F31188BFF34F8F3F
:102DB000BFF36F8FFEE7206C38B1502080F311888D
:102DC000BFF34F8FBFF36F8FFEE700F00FF9DFF80F
:102DD000F4804FF000094FF0805748B9059838B19A
:102DE000502080F31188BFF34F8FBFF36F8FFEE742
:102DF000FFF73EFCA56BC5B151462046FFF774F8BE
:102E00006D1EA563206950B104F1100000F0B2F905
:102E100028B1C8F80070BFF34F8FBFF36F8FFFF773
:102E200047FC012006B0BDE8F087059808B11EB147
:102E300006E0FFF73DFC27E06846FFF713FD01269B
:102E4000FFF736FCFFF794FDFFF712FC94F94400FE
:102E5000401C01D184F8449094F94500401C01D1F4
:102E600084F84590FFF724FC05A9684600F02CF88B
:102E7000002820460AD0FFF7EDFA00F0B5F9204609
:102E8000FFF7A2F90028B3D00020CBE7FFF79CF9A9
:102E900090B104F124000599FFF7F2FC2046FFF7FA
:102EA000D9FA00F0A1F90028A2D1C8F80070BFF348
:102EB0004F8FBFF36F8F9BE72046FFF7CBFA00F0F1
:102EC00093F995E704ED00E02DE9F0410C4605008B
:102ED00011D0C4B1FFF7CCFB174B5A696E6820685C
:102EE000911B471C17D02F689B6A9F4219D09642AE
:102EF00017D8012410E0502080F31188BFF34F8FC2
:102F0000BFF36F8FFEE7502080F31188BFF34F8F20
:102F1000BFF36F8FFEE70024FFF7CAFB2046BDE832
:102F2000F081884205D9401A20602846FFF79AFCB4
:102F3000F1E700202060DCE7180000202DE9FF5FAA
:102F40008346DDE90E87994616468A469000FFF7CC
:102F5000B7FA05001CD05420FFF7B2FA040014D0D1
:102F60000020256384F85100CDE90240CDE90087B7
:102F70004B46324651465846FFF77BF82046FEF74F
:102F80001FFF012004B0BDE8F09F2846FFF7A4FB17
:102F90004FF0FF30F6E7F0B585B0DDE90B640A9D30
:102FA000A6B1DCB1542700972663022684F851604D
:102FB000002604AFCDE90246CDE90057FFF759F8E6
:102FC0002046FEF7FDFE049805B0F0BD502080F3CA
:102FD0001188BFF34F8FBFF36F8FFEE7502080F350
:102FE0001188BFF34F8FBFF36F8FFEE70548C169AC
:102FF00019B1806B18B10020704701207047022082
:103000007047000018000020014840697047000028
:10301000180000202DE9F0412E4C0027A06B40B194
:10302000206A401C2062606A00B101273846BDE872
:10303000F0816669761C666113D16068006838B1FA
:10304000502080F31188BFF34F8FBFF36F8FFEE7DF
:103050006068A1686160A060A06A401CA062FFF780
:1030600079F9206BDFF87080864209D360680068C8
:1030700080B16068C068C568686886420DD2206308
:103080002068C06A00EB800158F821000128CAD9E5
:103090000127C8E74FF0FF30F1E7281DFFF78EFA50
:1030A000A86A18B105F11800FFF788FAE86A01214B
:1030B000A26981401143A16100EB800108EB81000E
:1030C000291DFFF7C9FAE86A2168C96A8842CDD389
:1030D0000127CBE718000020CC06002070B50400C3
:1030E0004FF0000140D0214D2868844207D0502085
:1030F00080F31188BFF34F8FBFF36F8FFEE7A06C93
:1031000038B1401EA064636CE26A9A422CD040B190
:103110002AE0502080F31188BFF34F8FBFF36F8FE9
:10312000FEE7201DFFF74AFA114A012150B9E06A73
:1031300000EB800352F8233023B9AB6901FA00F0A9
:103140008343AB61606CE062C0F10500A061E06A9E
:10315000AB6981401943A96100EB800002EB80005C
:10316000211DFFF779FA0121084670BD18000020E3
:10317000CC0600202DE9F041C068C468ACB104F170
:1031800018000746FFF71AFA154DA86B0126A0B1E3
:1031900039461448FFF760FAE06A2968C96A88422C
:1031A0001CD901206E62BDE8F081502080F31188A7
:1031B000BFF34F8FBFF36F8FFEE7201DFFF7FEF9C0
:1031C000E16AAA6906FA01F01043A86101EB8100E7
:1031D00004498C3901EB8000211DDBE70020E2E788
:1031E00018000020580700202DE9F0472C4D00243E
:1031F0002746A86B38B1FFF73BFAA86B401EA863BF
:10320000A86B40B146E0502080F31188BFF34F8F88
:10321000BFF36F8FFEE72969224E0120D1B3A6F1DB
:103220008C0980463068E8B1F068C46804F1180081
:10323000FFF7C4F9201DFFF7C1F9E06AAA6908FA8F
:1032400000F11143A96100EB800109EB8100211D10
:10325000FFF702FAE06A2968C96A8842E2D3C5F832
:103260002480DFE70CB1FFF775F82C6A44B14646BD
:10327000FFF7D0FE00B16E62641EF9D10020286213
:10328000686A38B10849012738070860BFF34F8FD3
:10329000BFF36F8FFFF70CFA3846BDE8F0870000E8
:1032A000180000205807002004ED00E02DE9FC473D
:1032B00081461E46174688462C200A9DFFF700F9D6
:1032C00004000AD0CDE9005433463A464146484608
:1032D000FEF716FF002084F828002046BDE8FC8792
:1032E0007CB52C26DDE90654009644B1CDE90054A6
:1032F000FEF706FF012084F8280020467CBD502000
:1033000080F31188BFF34F8FBFF36F8FFEE700008C
:1033100010B586B0FEF7BCFD114CA068B8B1002016
:103320000390049005AA04A903A8FFF765F9DDE955
:10333000032102208DE8070000230AA10B48059A0B
:10334000FFF729FEE06010B106B0012010BD50204B
:1033500080F31188BFF34F8FBFF36F8FFEE700003C
:1033600054000020546D722053766300312400080D
:10337000FEB51E4613460200089D4FF0000014D013
:10338000124CA768002F0FD0CDE900130292062936
:1033900015DAFFF72BFE02284FF000030DD00022B4
:1033A0006946A068FFF7E6FBFEBD502080F3118858
:1033B000BFF34F8FBFF36F8FFEE72A46F0E700237E
:1033C000324669463846FFF785FCFEBD54000020B2
:1033D000F516000800000000203400087D190008E0
:1033E000000000000000000080000000000000005D
:1033F00000000000010202030405060708090A0B89
:103400000C0D0E0F10100000000000000000010263
:10341000030406070809000000000102030400007D
:1034200064656661756C745461736B004C3400089C
:10343000000000208C00000028010008D83400089B
:103440008C000020541A0000440100080000000015
:10345000000000000100000010000000000000005B
:103460000024F40000000000000000000000000044
:10347000000000000000000000000000000000004C
:10348000000000000000000000000000000000003C
:10349000000000000000000000000000000000002C
:1034A000000000000000000000000000000000001C
:1034B000000000000000000000000000000000000C
:1034C00000000000000000000000000000000000FC
:0834D000AAAAAAAA000000004C
:04000005080000ED02
:00000001FF
