S31508000000281A00209D010008092700088B230008EC
S31508000010F5260008B5040008212B0008000000009A
S3150800002000000000000000000000000005010008B4
S31508000030FD0400080000000049010008ED2700083B
S31508000040B7010008B7010008B7010008B7010008A2
S31508000050B7010008B7010008B7010008B701000892
S31508000060FF040008B7010008B7010008B701000837
S31508000070B7010008B7010008B7010008B701000872
S31508000080B7010008B7010008B7010008B701000862
S31508000090152B0008B7010008B7010008B7010008CA
S315080000A0B701000879280008B7010008B701000859
S315080000B0B701000885280008B7010008B70100083D
S315080000C0B7010008B7010008B7010008B701000822
S315080000D0B7010008B7010008B7010008B701000812
S315080000E0B7010008B7010008B7010008DFF810D00B
S315080000F000F09CF900480047192C0008AFF300806F
S31508000100281A0020224B19680868B0E8F00F80F317
S315080001100988BFF36F8F4FF0000080F311884EF007
S315080001200D0E70470000000006480068006880F35E
S31508000130088862B661B6BFF34F8FBFF36F8F00DFD3
S3150800014000BF00BF08ED00E0EFF30980BFF36F8F33
S315080001500F4B1A6820E9F00F106008B54FF05000F1
S3150800016080F31188BFF34F8FBFF36F8F03F0E8FC5E
S315080001704FF0000080F31188BDE808401968086848
S31508000180B0E8F00F80F30988BFF36F8F704700BFA0
S3150800019044000020EFF305807047000006488047BA
S315080001A006480047FEE7FEE7FEE7FEE7FEE7FEE74E
S315080001B0FEE7FEE7FEE7FEE775280008ED00000803
S315080001C0202A04DB203A21FA02F00021704721FA9E
S315080001D002F3D040C2F12002914008431946704705
S315080001E040EA01039B0703D009E008C9121F08C0AB
S315080001F0042AFAD203E011F8013B00F8013B521E2B
S31508000200F9D27047D2B201E000F8012B491EFBD2A1
S3150800021070470022F6E710B513460A460446194603
S31508000220FFF7F0FF204610BDF0B480EA0102D40FB4
S315080002304200B2EB410F02D20246084611464A0076
S3150800024042D0C30DDDB2C1F3C752AD1A202D35DA3F
S31508000250C1F3160141F4000204B15242C5F1200669
S3150800026002FA06F12A411044B3EBD05F23D0C4B199
S31508000270012DA0EBC35009DCF0BC4FF0004202EAA6
S31508000280C352DBB200F5000000F0A1B8400000F14F
S31508000290807000EBC350A0F1807040EAD17049002D
S315080002A009E0490841EAC071A0EBC35000F5000017
S315080002B0400800EBC350F0BC00F080B86142012250
S315080002C002EB4101001BF6E7F0BC704781F00041E4
S315080002D0AAE780F00040A7E780EA010210B502F01D
S315080002E00043400022D04A001FD0010E01EB1261E4
S315080002F0C0F35600C2F3560240F4000042F400026E
S31508000300A0FB022000047F39140400D0401C50EAE8
S31508000310124001D44000491EC2B20C0604EBD010AC
S31508000320401C4008802A02D003E0002010BD20F0BF
S315080003300100002900DA0020184310BDC10F80EA29
S31508000340E0700844CA079623002100F040B800F080
S31508000350004220F00040C10DC0F3160040F4000032
S315080003607F2901DA00207047962903DCC1F196013E
S31508000370C84001E096398840002AF4D040427047C8
S3150800038020F00040C10DC0F3160040F400007F299C
S3150800039001DA00207047962903DCC1F19601C840AE
S315080003A07047963988407047002801DBC0F1004045
S315080003B0002901DBC1F10041884270470029A8BF26
S315080003C07047401C490008BF20F00100704710B470
S315080003D0B0FA80FC00FA0CF050EA010404BF10BC25
S315080003E0704749B1CCF1200421FA04F411FA0CF152
S315080003F018BF012121430843A3EB0C01CB1D4FEA8B
S3150800040000614FEA102042BF002010BC704700EB85
S31508000410C35010440029A4BF10BC7047401C4900B3
S3150800042008BF20F0010010BC70470000064C074DBD
S3150800043006E0E06840F0010394E8070098471034A6
S31508000440AC42F6D3FFF756FE1C4600083C460008A9
S315080004507CB5154D4FF4807400222146284600F0DD
S31508000460E0FE642301221149114801F0B9FA01227C
S315080004702146284600F0D5FE00222146284600F0EF
S31508000480D0FE642009490090012301AA891C084866
S3150800049001F05DFB01222146284600F0C2FEBDF8A8
S315080004A00400C0F30D007CBD00080140C200002016
S315080004B09C050020FEE7000010B5044602210D4801
S315080004C000F0B9F9102040EA44110B4801606101B7
S315080004D041600146074800F037F908B100F012F804
S315080004E00221044800F0B6F8BDE81040014800F0C3
S315080004F079BC0000CC00002094000020704704203E
S3150800050000F086BD72B6FEE710B50B4C6078217810
S31508000510B0EB410F05D24FF40041084800F079FED0
S3150800052006E0042202EB4101814201D1FF206070FE
S315080005306078401C607010BDCA00002000080140A9
S3150800054006490020C8610648016941F004010161B5
S31508000550016941F04001016170470000D0060020A2
S3150800056000200240064A0021D16106490A6942F084
S3150800057002020A614861086940F040000861704754
S31508000580D006002000200240044B0022DA61044A0B
S31508000590136943F00103136101807047D0060020F8
S315080005A00020024014480022C168CB06134904D52E
S315080005B0CA6942F00202CA611022C3685B0705D500
S315080005C0CB6943F00103CB6142F00402C369DB0740
S315080005D007D0CB6943F00403CB61C16921F001015F
S315080005E0C161A2F58071013901D0C2607047C16945
S315080005F021F00101C161704700200240D0060020A9
S3150800060070B5054600F012FE0646114C09E0681C56
S3150800061007D025B100F00AFE801BA84201D90320A5
S3150800062070BDE068C007F2D1E068800601D52020D9
S31508000630E060E068C00605D4E069C00702D1E0685A
S31508000640400703D5FFF7AEFF012070BD002070BD3F
S315080006500020024090F82020012A07D0022A05D05F
S31508000660416A41F48021416201207047006842696D
S315080006700A43426100207047F0B590F8205004689C
S31508000680A468012D05D0022D03D0416A41F48021CA
S3150800069057E014F0406F01D1E5004FD5C4F301646B
S315080006A00125A5401D608D684FF4C0739DB1CE68C5
S315080006B035434E6845EAC605066803EB0417F55147
S315080006C04FF4C275076805EB04150E697E51097D5E
S315080006D0012905D009E00E88CD6845EA4655EBE7BD
S315080006E001684E5946F480764E511179D579567976
S315080006F041EA056195792D0445EA062529434FF413
S31508000700C676056806EB0416A9511178D57841EA2C
S315080007100561957852782D0445EA022211434FF473
S31508000720C475026805EB04155151006803EB041102
S31508000730425842F0010242500020F0BD416A41F49D
S31508000740001141620120F0BD10B590F82030026812
S31508000750012B07D0022B05D0416A41F48021416262
S31508000760012010BDD2F8000240F00100C2F80002D4
S31508000770087D00F01F0301209840D2F81C328343FD
S31508000780C2F81C32CB69B3B9D2F80C328343C2F82B
S315080007900C328C894B6864F31F434C6902EBC40422
S315080007A0C4F840320C890B6864F31F434C6902EBAA
S315080007B0C404C4F84432CB69012B16D1D2F80C32E2
S315080007C00343C2F80C320C884B6864F31F434C6928
S315080007D002EBC404C4F840320C89CB6864F31F43A7
S315080007E04C6902EBC404C4F844328B69002BD2F876
S315080007F004320FD053EA0003C2F804320B69002B07
S31508000800D2F8143208D00343C2F81432096A01290F
S3150800081004D008E08343EFE78343F5E7D2F81C12D8
S315080008200143C2F81C12D2F8000220F00100C2F8F7
S315080008300002002010BD90F82020012A07D0022AC5
S3150800084005D0416A41F48021416201207047006861
S3150800085042698A43426100207047704770B590F834
S315080008602040012C05D0022C03D0416A41F4802196
S3150800087028E0046809B32469A40720D04FF4D87483
S31508000880056804EB01142D5915F0040595600568F3
S315080008902D591AD0ED08556005682C5904F0020444
S315080008A0D4604FF4DA74056804EB01142E5906F087
S315080008B00F06082E0CD308250DE0E468DCE7416A2C
S315080008C041F400114162012070BD6D0D1560E3E72A
S315080008D02D5905F00F05156105682D59C5F307252E
S315080008E0956105682C59240C54614FF4DC72046830
S315080008F002EB0112A4581C700468A458240A5C7000
S315080009000468A458240C9C700468A258120EDA7065
S315080009104FF4DE72046802EB0112A4581C710468D5
S31508000920A458240A5C710468A458240C9C710468B1
S31508000930A258120EDA71006829B1016941F0200146
S315080009400161002070BDC16841F02001C160F8E76F
S315080009500246002092F82010012901D002290CD164
S3150800096011688A68520100D501208A68120100D5EB
S31508000970401C8968C90000D5401C70472DE9F05F06
S315080009800546006800244669D0F804908768D0F8C0
S315080009900CB0D0F810A0D0F81880F10748D0F907A5
S315080009A014D001218160B80703D5284600F047FA1C
S315080009B00CE0780702D54FF4006407E0380702D543
S315080009C04FF4805402E0284600F038FAF80516D5A8
S315080009D029684FF480708860B80503D5284600F06A
S315080009E030FA0CE0780502D544F4005407E03805DF
S315080009F002D544F4804402E0284600F021FAF803C0
S31508000A0016D529684FF480308860B80303D5284680
S31508000A1000F019FA0CE0780302D544F4004407E024
S31508000A20380302D544F4803402E0284600F00AFA76
S31508000A30300707D55FEACB6004D52968102044F44F
S31508000A400074C86070074FF0080707D55FEA0B7097
S31508000A5004D52868C760284600F05AF9B00706D5B5
S31508000A602868C068800702D0284600F053F9700647
S31508000A7007D55FEACA6004D52968102044F4806463
S31508000A800861B00607D55FEA0A7004D528680761C9
S31508000A90284600F081F9F00606D52868006980071F
S31508000AA002D0284600F079F9B00308D55FEAC96094
S31508000AB005D5296810204860284600F091F9F0030A
S31508000AC007D55FEA097004D528684760284600F00C
S31508000AD0BBF9300446D55FEA497040D5F00504D520
S31508000AE05FEAC87001D044F00104B00504D55FEA96
S31508000AF0887001D544F00204700504D55FEA487091
S31508000B0001D544F00404300529D518F0700F26D015
S31508000B1008F07000402815D006DC102809D02028D7
S31508000B200AD0302816D10AE050280ED0602811D1F4
S31508000B300EE044F008040DE044F010040AE044F026
S31508000B40200407E044F0400404E044F0800401E097
S31508000B5044F480742868816921F0700181612968EC
S31508000B6004204860002C05D0686A2043686228463D
S31508000B70FFF773FEBDE8F09F70B5040003D094F844
S31508000B80200010B104E0012070BD204600F082F874
S31508000B902068016841F00101016000F047FB054645
S31508000BA0052604E000F042FB401B0A2811D82068FD
S31508000BB04068C007F6D02068016821F0020101608C
S31508000BC000F034FB05460BE000F030FB401B0A281A
S31508000BD006D9606A40F40030606284F82060D2E783
S31508000BE0206840688007EFD4207E012820680168C5
S31508000BF03DD021F080010160607E012820680168EF
S31508000C0038D021F040010160A07E012820680168E3
S31508000C1033D021F020010160E07E012820680168B8
S31508000C202ED041F010010160207F0128206801685C
S31508000C3029D021F008010160607F01282068016839
S31508000C4024D021F004010160D4E902010843D4E963
S31508000C500412114308436168491E08432168C861A4
S31508000C6000206062012084F82000002070BD41F059
S31508000C708001C0E741F04001C5E741F02001CAE71D
S31508000C8021F01001CFE741F00801D4E741F0040153
S31508000C90D9E7000010B586B00021009101910291B4
S31508000CA003910068174988422AD11748C16941F05B
S31508000CB00071C161C16901F000710491816941F057
S31508000CC0040181618069114C00F0040004904FF41E
S31508000CD0006000906946204600F0A6F9A01400902E
S31508000CE002200190032003906946204600F09CF9F3
S31508000CF000220521142000F031FB142000F020FB0F
S31508000D0006B010BD00640040001002400008014013
S31508000D107047000030B587B0194B6A460021FFF7C7
S31508000D209DFD18B1FFF7EEFB07B030BD154C0398D3
S31508000D30B0B113480178217011B1012904D00FE030
S31508000D401149806808630BE0104D41682963806883
S31508000D50B0F5F01F01DD0E4801E0FFF7EFFAE86194
S31508000D600748E16F0C30421C4160A16B816009485D
S31508000D700B230178A2F1250000F010F8D4E7000053
S31508000D80F814002010150020A0150020E4150020F6
S31508000D900000F049C600002070477047F8B50361A7
S31508000DA0164604460C4D0127016004E02F700B48D7
S31508000DB0FFF7CEFDC0B20028F8D0002028706B4699
S31508000DC0324621460548FFF757FC18B1022028701D
S31508000DD0FFF798FB0120F8BDCA000020CC000020D0
S31508000DE07047000070B5044690F82000012804D02A
S31508000DF0606A40F40020606218E0022084F820004F
S31508000E002068016821F00101016000F00FFA05462B
S31508000E100EE000BF00F00AFA401B0A2808D9606AEB
S31508000E2040F400306062052084F82000012070BD7F
S31508000E3020684068C007EDD1606270BD7047704792
S31508000E4070477047704770477047000070B5044692
S31508000E5000F0ECF90546601C02D00448007804440A
S31508000E6000F0E4F9401BA042FAD370BD140000203C
S31508000E702DE9F047054626480F460126017E012939
S31508000E800FD00121814601762868DFF888804CF268
S31508000E905034022808D0A2462046FFF7B1FBA8B175
S31508000EA031E00220BDE8F0872046FFF7A9FB08BB22
S31508000EB00120FFF745FB2046FFF7A2FBD8F81010E4
S31508000EC0064621F00401C8F810101CE04FF0FF3068
S31508000ED03860AC6811E02046FFF744FB5046FFF740
S31508000EE08FFBD8F81010060021F00201C8F8101080
S31508000EF001D03C6007E004F58064D5E9020100EB07
S31508000F008120A042E7D8002189F818103046C9E7A1
S31508000F10D0060020002002400348016941F0800104
S31508000F200161002070470000002002402DE9F05FB3
S31508000F3007461C4888460024017E15461E46012998
S31508000F4009D00121814601764CF2503A5046FFF706
S31508000F5057FB18B122E00220BDE8F09F012F02D00E
S31508000F60022F00D00427D346DFF83CA022012846EA
S31508000F703146FFF725F981B208EB4400FFF704FB79
S31508000F805846FFF73DFBDAF8102022F00102CAF8AE
S31508000F90102018B9641CE4B2BC42E7D3002289F8D1
S31508000FA01820D9E7D0060020002002400649002074
S31508000FB00A69120607D5054A4A60054A4A60096958
S31508000FC0090600D501207047002002402301674525
S31508000FD0AB89EFCD10B50C4C0421204600F014F96E
S31508000FE0002810D00A20FFF731FF0421204600F020
S31508000FF00BF9002807D0054801214170C178491C22
S31508001000C1700021817010BD00080140C600002093
S31508001010044910B50A68024202D00860FFF7DAFFF1
S3150800102010BD0000140401402DE9F84FDFF8B8910F
S315080010300024A9F1040B23460F2709F1040AABF192
S31508001040040EC9E00125A5402A40AA427DD1674E73
S31508001050D1F804C0ACEB0608B44532D014DCBCF1B8
S31508001060030F3AD009DCBCF1000F2AD0BCF1010FFE
S315080010701CD0BCF1020F31D11DE0BCF1110F17D005
S31508001080BCF1120F2AD119E0B8F5881F19D006DC71
S31508001090B8F5803F15D0B8F5801F1FD111E0B8F517
S315080010A0001F0ED0B8F5041F18D10AE0CB6815E06A
S315080010B0CB681B1D12E0CB6808330FE0CB680C33F6
S315080010C00CE08B682BB1012B4FF0080303D0456168
S315080010D004E0042302E0056100E00023FF2A01D8AA
S315080010E0064601E000F104064FEA840501D9A5F198
S315080010F02005D6F8008007FA05FC28EA0C0803FA4A
S3150800110005F548EA0508C6F800804D68ED0062D581
S31508001110374DAE6946F00106AE61AD6924F00306A7
S3150800112005F001050095334D06EB050CDCF8085073
S31508001130A607360F07FA06F825EA0805DFF8B88085
S31508001140404503D14FF0000817E044E0DFF8AC80D3
S31508001150404502D14FF001080FE0DFF8A480404572
S3150800116002D14FF0020808E0DFF89880404502D126
S315080011704FF0030801E04FF0040808FA06F848EAB9
S315080011800508CCF808804D68D9F80060ED024D4690
S3150800119001D5164300E096432E604D68DAF80060E4
S315080011A0AD02554601D5164300E096432E604D68BC
S315080011B0DBF80060AD035D4601D5164300E09643B3
S315080011C02E604D68DEF80060ED03754601D51643BE
S315080011D000E096432E60641C0D682A46E5407FF4BD
S315080011E031AFBDE8F88F0000080401400000111077
S315080011F0001002400000014000080140000C0140B8
S3150800120000100140001401408068084000D0012009
S315080012107047C26821EA02030A4043EA02410161B3
S3150800122070470AB1016170470904FBE70148806805
S3150800123070470000140000200248816802781144B3
S315080012408160704714000020074810B5016841F016
S3150800125010010160032000F0A1F80F2000F006F845
S3150800126000F04AF8002010BD0020024030B50546BF
S315080012701C4887B0816941F400618161806906A9CB
S3150800128000F40060009001A800F030F900F04EF973
S315080012901549164AB0FBF1F11548491E026041602E
S315080012A040F2E7320021C0E903218160816100F044
S315080012B07BFD040012D10E4800F0F4FD04000DD1A8
S315080012C0192000F03DF8102D07D2002229461920D2
S315080012D000F044F80748056000E0012407B02046FE
S315080012E030BD00000010024040420F00002C0140B3
S315080012F0F4050020180000200F4808B5816941F060
S3150800130001018161816901F001010091C16941F022
S315080013108051C161C069002200F0805000900F2101
S31508001320901E00F01BF80548416821F0E06141F085
S315080013300071416008BD0000001002400000014035
S31508001340002809DB00F01F020121914040098000B6
S3150800135000F1E020C0F8001170470000F0B40E4B11
S315080013601B680C46C3F30223C3F10705042D00D9F5
S315080013700425191D072901D2002300E0DB1E0126DA
S3150800138006FA05F1491E214099409E40761E1640F0
S315080013903143F0BC01F0F0BB0CED00E0064900F06B
S315080013A0070208684FF6FF03184040EA0220034A7E
S315080013B010430860704700000CED00E00000FA05D5
S315080013C02DE9F0470F46050061D0434E306800F01E
S315080013D00700B84209D2306820F007003843306069
S315080013E0306800F00700B84251D128683B4C8107A5
S315080013F012D5400703D5606840F4E060606028783D
S31508001400000703D5606840F4605060606068A968AA
S3150800141020F0F000084360602878C00728D0686884
S31508001420012810D02168022810D0890700292EDA51
S31508001430616821F0030101436160FFF7F7FE80460A
S3150800144041F288390DE021688903EFE78901EDE764
S31508001450FFF7ECFEA0EB0801494502D90320BDE8D9
S31508001460F0876068696800F00C00B0EB810FEFD177
S31508001470306800F00700B8420BD9306820F0070042
S3150800148038433060306800F00700B84201D00120C8
S31508001490E5E72878400705D56068E96820F4E06044
S315080014A0084360602878000706D56068296920F433
S315080014B0605040EAC100606000F048F86168084A78
S315080014C0C1F30311515CC840064908600648006824
S315080014D0FFF7CCFE0020C2E70020024000100240C1
S315080014E0D845000810000020180000200F220260CE
S315080014F00C4A536803F003034360536803F0F00390
S315080015008360536803F4E063C36052684FF4E06392
S3150800151003EAD20202610448006800F00700086086
S3150800152070470000001002400020024004480549A8
S3150800153000684968044AC1F3C221515CC840704733
S315080015401000002000100240E84500080E4A5168C5
S315080015500E4801F00C03042B11D0082B0FD10C48B0
S31508001560C1F38343C903C05C0AD55168084AC1F36D
S315080015704041921E515C054A5043B0FBF1F070475A
S3150800158004494843704700000010024000127A00E0
S31508001590F245000800093D002DE9F84F040070D017
S315080015A02078C04DC00749D06868C0F3810001287B
S315080015B007D06868C0F38100022809D16868C003AB
S315080015C006D52868800339D560680028E7D035E055
S315080015D06068B0F5803F0BD010B1B0F5A02F11D0E0
S315080015E0286820F480302860286820F4802002E0EB
S315080015F0286840F480302860606890B1FFF716FECE
S3150800160006460AE0286840F480202860F0E700BF14
S31508001610FFF70CFE801B642873D828688003F7D56B
S315080016200CE0FFF703FE064605E000BFFFF7FEFDE8
S31508001630801B6428F0D828688003F7D420789A4E4F
S3150800164080074FF001094FF0000839D5686810F097
S315080016500C0F07D06868C0F38100022809D16868B2
S31508001660C00306D42868800714D52069012808D144
S3150800167010E02069B0B1C6F80090FFF7D7FD07461D
S3150800168005E00AE1FFF7D2FDC01B0228C4D8286886
S315080016908007F7D52868616920F0F80040EAC1009C
S315080016A028600DE0C6F80080FFF7C0FD074604E095
S315080016B0FFF7BCFDC01B022823D828688007F7D48B
S315080016C0207800072CD57948A169D9B1C0F80090CF
S315080016D0FFF7ACFD074604E0FFF7A8FDC01B02288C
S315080016E00FD8686A8007F7D571484FF4FA51006831
S315080016F0B0FBF1F0009000BF0098411E0091FAD2AD
S315080017000EE080E0C0F80080FFF790FD074604E091
S31508001710FFF78CFDC01B022875D8686A8007F7D4C6
S315080017202078400760D5E8690027C00008D4E86932
S3150800173040F08050E861E869012700F08050009089
S315080017405C480168C90513D40168834641F4807171
S315080017500160FFF76BFD824606E000BFFFF766FDF6
S31508001760A0EB0A0064284ED8DBF80000C005F5D5C2
S31508001770E06801280AD008B1052813D0286A20F0A5
S3150800178001002862286A20F0040002E0286A40F076
S3150800179001002862E06841F2883B98B1FFF746FDF0
S315080017A082460BE0286A40F004002862EEE700BF94
S315080017B0FFF73CFDA0EB0A0159455AD8286A80076D
S315080017C0F6D50CE0FFF732FD824605E0FFF72EFD61
S315080017D0A0EB0A0159454CD8286A8007F6D41FB1F0
S315080017E0E86920F08050E861E06988B36968C1F368
S315080017F08101022944D00228C6F8608004D0FFF788
S3150800180015FD044638E034E0FFF710FD074604E00E
S31508001810FFF70CFDC01B02282BD828688001F7D4D7
S31508001820206AB0F5803F05D16868A16820F40030C9
S3150800183008436860D4E908010843696821F474110B
S3150800184008436860C6F86090FFF7F0FC044606E0B7
S3150800185025E000BFFFF7EAFC001B022809D8286824
S315080018608001F7D51BE000BFFFF7E0FC001B02284C
S3150800187002D90320BDE8F88F28688001F4D40EE069
S315080018800128F7D06868226A00F48031914204D1B1
S31508001890616A00F47010884201D00120EAE700204E
S315080018A0E8E700000010024000004242800442427D
S315080018B0100000200070004070B5040009D0606A6E
S315080018C0002540B125616561A56294F8510040B1D3
S315080018D00CE0012070BD6068B0F5827FF4D0E56148
S315080018E0F2E784F85050204600F040F8022084F8C9
S315080018F051002068016821F040010160A088218913
S3150800190000F4827001F404410843A18901F40061DE
S315080019100843217C01F002010843217D01F0010101
S315080019200843218B01F400710843217F01F0380137
S31508001930084394F8201001F080010843218D01F432
S315080019400051084321680860A069042101EA104093
S31508001950216848602068C16921F40061C161656534
S31508001960012084F85100002070BD000030B585B014
S31508001970002400940194029403940068154988424F
S3150800198025D11548C16941F48041C161C16901F495
S3150800199080410491816941F00801816180690F4D98
S315080019A000F0080004904FF42040009002200190B7
S315080019B00320039069462846FFF736FB4FF480401C
S315080019C0CDE90004694628460294FFF72DFB05B0C9
S315080019D030BD00000038004000100240000C0140F5
S315080019E02DE9F84F044690F850000026984615460B
S315080019F08A4601280CD0012784F85070FFF716FC98
S31508001A00814694F85100B346012804D002269AE08C
S31508001A100220BDE8F88FBAF1000F6FD0002D6DD007
S31508001A20032084F85100C4F854B0C4F830A0A58641
S31508001A30E586C4F838B0A4F83CB0A4F83EB0C4F8BB
S31508001A4044B0C4F840B0A068B0F5004F09D120688A
S31508001A50016821F0400101602068016841F4804175
S31508001A60016020680168490603D4016841F0400115
S31508001A700160E068B0F5006F606803D058B3012DC7
S31508001A8029D049E008B1012D1FD1206B21680088B3
S31508001A90C86006E020688168890709D5216B09882E
S31508001AA0C160206B801C2063E08E401EE0860CE03F
S31508001AB0FFF7BCFBA0EB0901414503D3B8F1FF3F93
S31508001AC003D006E0B8F1000F03D0E08E0028E1D17C
S31508001AD025E0032635E0206B21680078087306E0C8
S31508001AE02068816889070AD5216B09780173206BFC
S31508001AF0401C2063E08E401EE0860DE01FE0FFF7E5
S31508001B0095FBA0EB0901414503D3B8F1FF3F03D08C
S31508001B10DFE7B8F1000FDCD0E08E0028E0D14A46B6
S31508001B204146204600F0F1FD08B120206065A06816
S31508001B3018B92068C16880680090606D08B10126F0
S31508001B4001E084F8517084F850B0304661E72DE919
S31508001B50FF4F81B0044690F8500000260E9F1D46A0
S31508001B6093464FF0010901280FD04FF0010A84F877
S31508001B7050A0FFF75BFB804694F851006168012886
S31508001B800DD0B1F5827F08D103E0022005B0BDE88B
S31508001B90F08FA16809B9042801D00226C9E0029885
S31508001BA0002865D0BBF1000FFBD0002DF9D094F8C2
S31508001BB05100042802D0052084F8510000206065F1
S31508001BC0C4F838B0E587A58702992163E586A58616
S31508001BD02064606420680168490603D4016841F0FE
S31508001BE040010160E068B0F5006F606803D0F0B3AB
S31508001BF0012D47D081E008B1012D3CD1206B216829
S31508001C000088C860206B801C2063E08E401EE0863A
S31508001C1031E02068816889070FD5E18E69B1B9F18D
S31508001C20010F0AD1216B0988C160206B801C2063D3
S31508001C30E08E401EE0864FF0000920688168C907DB
S31508001C400CD0E18F51B1C068A16B0880A06B801CD5
S31508001C50A063E08F401EE0874FF00109FFF7E6FA20
S31508001C60A0EB0800B84206D3781C04D001E009E0CE
S31508001C705BE003265BE0E08E0028CAD1E08F0028EF
S31508001C80C7D140E0206B216800780873206B401CA0
S31508001C902063E08E401EE0862FE020688168890771
S31508001CA00FD5E18E69B1B9F1010F0AD1216B097817
S31508001CB00173206B401C2063E08E401EE0864FF0C7
S31508001CC0000920688168C9070CD0E18F51B1C06846
S31508001CD0A16B0870A06B401CA063E08F401EE087D4
S31508001CE04FF00109FFF7A2FAA0EB0800B84202D3A9
S31508001CF0781C02D0BAE7002FB8D0E08E0028CCD1E5
S31508001D00E08F0028C9D142463946204600F0FDFC3E
S31508001D1018B10126202060650BE0A06818B9206874
S31508001D20C16880680090606D08B1012601E084F8FA
S31508001D3051A0002084F85000304627E770477047C6
S31508001D4070B590F83C20012A26D0012480F83C4042
S31508001D50022280F83D2003685A689D6822F07006C2
S31508001D600A6832435A600D4B02689A4208D0B2F1AB
S31508001D70804F05D00A4B9A4202D00A4B9A4204D1A8
S31508001D80496825F080031943916080F83D40002199
S31508001D9080F83C10084670BD022070BD002C01403A
S31508001DA0000400400008004010B5040003D094F871
S31508001DB03D0010B107E0012010BD002084F83C006A
S31508001DC0204600F01FF8022084F83D00211D2068F7
S31508001DD000F084FD012084F8460084F83E0084F86B
S31508001DE03F0084F8400084F8410084F8420084F8F3
S31508001DF0430084F8440084F8450084F83D00002038
S31508001E0010BD000008B501681048B1F1804F14D024
S31508001E100F4A914219D1C16941F00201C161C069F5
S31508001E20002200F00200009004211D20FFF796FA18
S31508001E30BDE808401D20FFF783BAC16941F00101DA
S31508001E40C161C06900F00100009008BD00100240A1
S31508001E500004004090F83D10012901D00120704788
S31508001E60022180F83D1000680B49884208D0B0F17D
S31508001E70804F05D00949884202D00949884204D1D1
S31508001E80816801F00701062903D0016841F00101C4
S31508001E900160002070470000002C0140000400404B
S31508001EA00008004090F83D10012901D00120704734
S31508001EB0022180F83D100168CA6842F00102CA6032
S31508001EC000680B49884208D0B0F1804F05D009490F
S31508001ED0884202D00849884204D1816801F0070186
S31508001EE0062903D0016841F001010160002070470E
S31508001EF0002C0140000400400008004070B504466C
S31508001F0090F83C000025012817D0012684F83C608B
S31508001F10022084F83D002068826822F0770222F4C5
S31508001F207F4282600868502838D00DDC20284FD0C0
S31508001F3005DC90B3102811D14AE0022070BD302884
S31508001F4046D040280AD13BE060282FD070280DD013
S31508001F50B0F5805F03D0B0F5005F12D0012584F894
S31508001F603D60002084F83C00284670BDCB68D1E966
S31508001F700121206800F0F5FC2068816841F07701AE
S31508001F8009E0CB68D1E90121206800F0EAFC206865
S31508001F90816841F480418160E1E719E0CA684968CF
S31508001FA0206800F093FD5021206806E0CA68496859
S31508001FB0206800F09CFD6021206800F0DCFCCEE77C
S31508001FC0CA684968206800F081FD40212068F4E766
S31508001FD0226801461046F0E7704770B50446006867
S31508001FE001694FF00005C943890715D4C168C9437B
S31508001FF0890711D4E91E01610120207720688069CC
S315080020008007204602D0FFF7E7FF04E000F0C8F893
S31508002010204600F05AF9257720680169C94349071F
S3150800202017D4C168C943490713D46FF00401016185
S31508002030022020772068806910F4407F204602D06D
S31508002040FFF7CAFF04E000F0ABF8204600F03DF9C0
S31508002050257720680169C943090716D4C168C943A9
S31508002060090712D46FF0080101610420207720685F
S31508002070C0698007204602D0FFF7AEFF04E000F0F3
S315080020808FF8204600F021F9257720680169C943B1
S31508002090C90617D4C168C943C90613D46FF010011D
S315080020A00161082020772068C06910F4407F204627
S315080020B002D0FFF791FF04E000F072F8204600F026
S315080020C004F9257720680169C943C90708D1C16899
S315080020D0C943C90704D1891E0161204600F044F9A5
S315080020E020680169C943090609D4C168C9430906B4
S315080020F005D46FF0800101612046FFF71FFE2068B6
S315080021000169C943490609D4C168C943490605D4C2
S315080021106FF040010161204600F036F92068016938
S31508002120C94389060BD4C168C943890607D46FF029
S31508002130200101612046BDE87040FFF700BE70BD72
S3150800214000B585B0002100910191029103910068C4
S31508002150B0F1804F1BD10F48816941F008018161B8
S315080021608069694600F0080004904FF440600090CA
S315080021700220019003900848FEF756FF0748416879
S3150800218021F4407141F0E06141F40071416005B00D
S3150800219000BD000000100240000C01400000014094
S315080021A0704770B5044690F83C0000260D46012895
S315080021B00FD0012084F83C006AB1042A1DD0082AF1
S315080021C02FD00C2A3FD00126002084F83C00304648
S315080021D070BD022070BD206800F0D6FB20688169BA
S315080021E041F0080181612068816921F0040181615B
S315080021F0206881692A69114311E0206800F0ECFB28
S315080022002068816941F4006181612068816921F44F
S3150800221080618161206881692A6941EA02218161B8
S31508002220D2E7206800F004FC2068C16941F0080183
S31508002230C1612068C16921F00401C1612068C169D2
S315080022402A69114311E0206800F01EFC2068C16964
S3150800225041F40061C1612068C16921F48061C161EE
S315080022602068C1692A6941EA0221C161ACE710B553
S31508002270040003D094F83D0010B107E0012010BD1A
S31508002280002084F83C00204600F01EF8022084F85E
S315080022903D00211D206800F021FB012084F846003E
S315080022A084F83E0084F83F0084F8400084F8410032
S315080022B084F8420084F8430084F8440084F8450012
S315080022C084F83D00002010BD7047704710B50446DD
S315080022D0022249B104290ED0082913D094F84100E6
S315080022E0012816D0012010BD94F83E000128F9D126
S315080022F084F83E200FE094F83F000128F2D184F8D4
S315080023003F2008E094F840000128EBD184F84020EB
S3150800231001E084F841200122206800F015FB0F49EE
S315080023202068884203D1426C42F400424264206825
S31508002330884208D0B0F1804F05D00949884202D0BA
S315080023400849884204D1816801F00701062903D0AB
S31508002350016841F001010160002010BD002C014018
S31508002360000400400008004000680549884201D181
S3150800237000F08EBA0349884201D1FEF75DBF704767
S3150800238000040040002C01407047FEE770B5134C6E
S31508002390FF212046627880787AB1032809D9A1708E
S315080023A000256570E07800F0BDFBE078FEF784F85C
S315080023B0E570A078401CA07070BD2278B0EB420F83
S315080023C004D820210648FEF724FFF2E7042303EB8E
S315080023D042028242EDD1A170EBE70000C600002060
S315080023E0000C0140F8B50020ADF800000D4F6E4610
S315080023F001250446FEF7DAFD37F8140026F814001E
S31508002400641CE4B2AC42F7D3FEF786FDBDF80000C3
S3150800241008B1802802D90120ADF80000024980B22F
S315080024200870F8BD00FC0108C60000200F4810B56A
S315080024300D4901600921416000214FF48022816025
S31508002440C0E9031292004261017601224276827641
S31508002450C17601774177FEF78FFB002803D0BDE8E8
S315080024601040FEF74FB810BD00640040CC000020B5
S3150800247030B5184D93B00022D5E90001CDE90E011B
S3150800248001210EA800F08EFC134C0022A060D5E9AD
S315080024900201CDE91001012110A800F083FCE060DB
S315080024A01C2205F110016846FDF79AFE00216846D0
S315080024B000F04EFC20601C2205F12C0107A8FDF750
S315080024C08FFE002107A800F043FC606000F082FB45
S315080024D013B030BD9045000800000020F0B585B067
S315080024E0002000900190029003902748816941F0EE
S315080024F004018161816901F004010491816941F057
S31508002500080181618069214E00F0080004900022CC
S315080025104FF401413046FEF784FE1D4F002220216C
S315080025203846FEF77EFE042000901A480224CDE9BC
S31508002530010469463046FEF777FDE0010125CDE93D
S3150800254000050320CDE9024069463046FEF76CFDDA
S31508002550A003CDE90005CDE9025469463046FEF7E9
S3150800256063FD20200090CDE901546946384603945E
S31508002570FEF75AFD002205210820FEF7EFFE082087
S31508002580FEF7DEFE05B0F0BD00100240000801406F
S31508002590000C014000001110114810B50F490160E8
S315080025A04FF48271416000214FF40062C0E90212C3
S315080025B00122C0E90412520282610822C0E90721F9
S315080025C0416281620A21C162FFF776F9002803D0C9
S315080025D0BDE81040FDF796BF10BD0000003800406A
S315080025E09C05002010B58EB0002407940894099421
S315080025F00A940B941C2168460C94FDF70AFE22489F
S315080026004FF0804101604721C0E9011440F2E731EB
S31508002610C0E903148461FFF7C7FB08B1FDF772FF31
S315080026204FF48050079007A91748FFF767FC08B1D1
S31508002630FDF768FF1448FFF71AFE08B1FDF762FFB9
S315080026400B940BA910480C94FFF77AFB08B1FDF719
S3150800265059FF6020CDE900040294082269460A4819
S315080026600494FFF79EFD08B1FDF74CFF0C2269465E
S315080026700548FFF796FD08B1FDF744FF0248FFF746
S315080026805FFD0EB010BD00003C06002010B586B0F8
S31508002690002417480094019402940394049413495F
S315080026A0059401604721C0E9011440F2E731C0E909
S315080026B0031480218161FFF777FB08B1FDF722FF3C
S315080026C04FF48050009069460948FFF717FC08B197
S315080026D0FDF718FF049404A905480594FFF730FB95
S315080026E0002801D0FDF70EFF06B010BD000400401B
S315080026F084060020FEE704462046D4F88C10884756
S31508002700022000F019FBF7E7FEE738B50B46009202
S3150800271004460022802100F009F8002804D0606DE4
S3150800272040F020006065032038BD00002DE9F8431D
S315080027301E46914688460446089DFEF777FD401BCF
S31508002740351AFEF773FD074625480068C0F3CB30F7
S31508002750684338E0701C37D0FEF768FDC01BA842F6
S3150800276003D215B1009860B32CE02068416821F0C7
S31508002770E00141606068B0F5827F0BD1A068B0F5D2
S31508002780004F02D0B0F5806F04D12068016821F0AF
S3150800279040010160A06AB0F5005F09D120680168B0
S315080027A021F4005101602068016841F4005101607C
S315080027B0012084F85100002084F850000320BDE869
S315080027C0F8830025401E00902068816838EA0100D9
S315080027D004D000214945BDD10020F0E70121F9E7E1
S315080027E010000020012000F0A7FAFBE710B55020E2
S315080027F080F31188BFF34F8FBFF36F8F01F0EAFCA8
S3150800280018B104494FF080500860002080F3118801
S3150800281010BD000004ED00E030B58FB028216846F1
S31508002820FDF7F7FC14210AA8FDF7F3FC02250120A1
S31508002830049000951020059000244FF46010CDE90F
S31508002840084007956846FEF7A7FE08B172B6FEE788
S315080028500F20CDE90A054FF48060CDE90C4002212E
S315080028600AA80E94FEF7ACFD002801D072B6FEE762
S315080028700FB030BD704700000148FFF7AEBB00003F
S31508002880F40500200148FFF7A8BB000084060020D5
S3150800289010B5FDF7DDFD0F4A10805188411A09B2BF
S315080028A09180508011F5005F02DA01F5804104E05D
S315080028B0B1F5005F02DDA1F5804191800648B2F9C5
S315080028C00410C36F5A18C2674FF47A725143816372
S315080028D010BD0000BC00002010150020F0B50268ED
S315080028E0164B174C174D4FF08047984205D0B84203
S315080028F003D0A04201D0A84203D122F070064A684C
S315080029003243984205D0B84203D0A04201D0A8422B
S3150800291003D122F44074CA6822434C6922F080022B
S31508002920224302608A68C2620A688262984201D1BA
S315080029300969016301214161F0BD0000002C0140D5
S31508002940000400400008004010B501F01F030121F3
S31508002950046A99408C430462016A9A4011430162F1
S3150800296010BD10B5846842EA032224F47F440A4362
S315080029702243826010BD826822F070020A4342F048
S31508002980070181607047000030B5036A026A22F0C9
S31508002990010202624268846924F073050C682C43BC
S315080029A023F002058B682B430A4DA8420BD123F06E
S315080029B00805CB6822F440722B434D6923F00403C3
S315080029C015438A692A434260846149684163036200
S315080029D030BD0000002C014030B5026A036A23F0BE
S315080029E010030362436884690D6824F4E64444EAE4
S315080029F005248D6822F0200242EA05120B4DA842F2
S31508002A000ED1CD6822F0800242EA05124D6923F400
S31508002A10406343EA85038D6922F0400243EA850351
S31508002A204360846149688163026230BD002C0140BD
S31508002A3030B5036A026A22F4807202624268C46987
S31508002A4023F4007324F073050C682C438D6843EA5D
S31508002A5005230C4DA8420ED1CD6823F4006343EA42
S31508002A6005234D6922F4405242EA05128D6923F482
S31508002A70806342EA05124260C4614968C163036221
S31508002A8030BD0000002C014030B5046A026A22F409
S31508002A90805202624268C3690D6823F4E64343EA3A
S31508002AA005238D6824F4005444EA0534064DA842EB
S31508002AB004D14D6922F4804242EA85124260C3611C
S31508002AC049680164046230BD002C014010B5036AF0
S31508002AD0046A24F001040462846924F0F00444EAD8
S31508002AE0021423F00A020A438461026210BD10B57B
S31508002AF0036A046A24F010040462846923F0A003BC
S31508002B0024F4704444EA023243EA01118261016204
S31508002B1010BD00000148FDF731BF0000CC000020C1
S31508002B20FEE70000F0B5124987B0124D0870ADF8FF
S31508002B30140005AF01260024FEF738FA002001909C
S31508002B4000900121CDE90351694601A8FEF790F9E5
S31508002B5037F8142005EB440100230120FEF7E6F9B7
S31508002B60641CB442F4DBFEF7D7F907B0F0BD0000E9
S31508002B70C600002000FC01080907090E002804DB2E
S31508002B8000F1E02080F80014704700F00F0000F113
S31508002B90E02080F8141D704702E008C8121F08C11B
S31508002BA0002AFAD170477047002001E001C1121FC0
S31508002BB0002AFBD1704770B5C16A04468847E56BA1
S31508002BC0A0692D1DFDF7C3FB28632846296CBDE8BF
S31508002BD07040084710B50C48FFF73CF908210A4829
S31508002BE0FFF774FB0C210848FFF770FB0748FFF74F
S31508002BF059F9FFF7F7FB06480078FDF75DFCBDE8D5
S31508002C001040044800F040B83C0600208406002026
S31508002C10C600002010150020FEF716FBFFF7FCFD86
S31508002C20FFF75CFCFFF702FCFFF7B6FCFFF7DAFCE0
S31508002C30FFF72CFDFFF71CFC00F085F8FEE70146C0
S31508002C400020842900D0C81C70470000FEB51F4626
S31508002C5094460D460446DDE90A12DDE908300C9E65
S31508002C608DE807003A466146204600F0BBF800208A
S31508002C70206360630348A462C4E90F0684F83850E9
S31508002C80FEBD0000101500202DE9F04385B004466E
S31508002C90002500F8045B44221749FDF7A1FA1649F6
S31508002CA004F14800442244318146FDF799FA164951
S31508002CB01248CDE90051134F114E0297CDE9036032
S31508002CC000234FF07C5842461946201DFFF7BEFFE9
S31508002CD00F490E48CDE900510297CDE9036000235C
S31508002CE0424601214846FFF7B1FF0A48C4F88C005E
S31508002CF005B0BDE8F0830000A01500206D37000878
S31508002D000000484300007A4400806D44B72B000851
S31508002D100000F049192D0008017819B1D0F888107B
S31508002D20483001E0416C001D0847002101E000BF62
S31508002D30491C8142FBD3704710B500B9012000F049
S31508002D404BFE002010BD10B500F0AEFE002010BDF1
S31508002D507FB50D4604464169B0F9080081B1A169FD
S31508002D6071B1FFF76CFFD4E905128DE80700D4E9C5
S31508002D7000102B46226901F0EEF9039004B070BDED
S31508002D80FFF75DFF03A9CDE90001208A2B4682B231
S31508002D90D4E9001001F0B2F9012801D00020EDE7CE
S31508002DA00398EBE71CB511C86CB1CDE900040129FD
S31508002DB007D0002013460246012109A001F070FB46
S31508002DC01CBD0120F6E70090012907D00020134614
S31508002DD00246012102A001F049FB1CBD0120F6E7CD
S31508002DE00000000070B50DF1100C9CE8700080E83A
S31508002DF00E000021C160016100F1180C41618CE8E8
S31508002E0072000149C16270BD0D2E00082DE9F0411E
S31508002E100446806AD0E90C10081AFDF78FFAE060BC
S31508002E20616AFDF7C1FA06D3606AE16880F000407E
S31508002E30FDF7BAFA3FD2E1686069FDF7F5F9606116
S31508002E40216AFDF7B1FA206A08D380F0004061696B
S31508002E50FDF7AAFA03D2206A80F000406061D4E93F
S31508002E6003613046FDF732FAA168FDF735FA0546E3
S31508002E7061696068FDF730FA074631462068FDF754
S31508002E802BFA3946FDF7D0F92946FDF7CDF9A061A9
S31508002E90E169FDF789FAE06908D380F00040A16985
S31508002EA0FDF782FA03D2E06980F00040A061E0688D
S31508002EB02061BDE8F0810020A0616061F9E70000AB
S31508002EC02DE9F041184C0F46054666692068001D35
S31508002ED000F055FC38B9206890F82C10012088407D
S31508002EE0A1698143A161681C07D137B12168BDE892
S31508002EF0F0410E48091D00F08FBC20683544B542E4
S31508002F004560216805D2A068BDE8F041091D00F0BA
S31508002F106BBC6068091D00F067FC206B854200D217
S31508002F202563BDE8F081000044000020E41300207A
S31508002F302DE9F041054600F07BFC2E4C2069401C2B
S31508002F40206120682C4F10B1E06940B32DE0256060
S31508002F502069012829D1002606EB860007EB8000A8
S31508002F6000F034FC761C052EF6D32348643000F0B6
S31508002F702DFC2148783000F029FC1F488C3000F0E1
S31508002F8025FC1D48A03000F021FC1B48B43000F099
S31508002F901DFC1948643060601430A06005E02068A4
S31508002FA0E96AC06A884200D82560E06A401CE06287
S31508002FB0E96A0120A26988401043A06101EB8100FB
S31508002FC007EB8000291D00F027FC00F051FCE069A2
S31508002FD000280CD02068E96AC06A884207D20749E7
S31508002FE04FF080500860BFF34F8FBFF36F8FBDE877
S31508002FF0F0810000440000203013002004ED00E0BA
S3150800300038B500F015FC104CA068C8B90F4800F098
S31508003010DDFB0E48143000F0D9FB0C482060143054
S3150800302060600A4B00202833009003F148020C2107
S315080030300A2000F007FEA06010B105A100F096FC7A
S31508003040BDE8384000F014BC80000020F8130020CA
S31508003050546D72510000000030B4026C0B46002A11
S315080030600BD0C1681144C1604468A14201D301680C
S31508003070C16030BC1846FDF7B3B830BC70472DE9BF
S31508003080F041856B174604460026026C82B1C7B12B
S31508003090E068FDF7A5F8E168206C091AE160226886
S315080030A0914202D26168081AE060022F16D017E032
S315080030B02068A8B9606801F0F1F80646002060604B
S315080030C00EE0A068FDF78CF8216CA0680844A060A3
S315080030D06168884204D32068A06001E005B16D1ECE
S315080030E06D1CA5633046BDE8F08110B5044690F81E
S315080030F0510058B101280CD002280FD0502080F377
S315080031001188BFF34F8FBFF36F8FFEE7206B00F078
S31508003110C3FB2046BDE8104000F0BEBB10BD000052
S3150800312010484FF44061420706D0C01D0D4920F0F3
S315080031300700411AC1F540610B4A00230144C2E960
S3150800314000030839103A21F0070111604B600B6043
S315080031500B1AC0E9001393604FF000405360D0602B
S3150800316070470000F006002030000020144E154C71
S31508003170A6F1A0074FF08058DFF84C9012E000BF88
S3150800318000F056FBF068C568281D00F0F8FA2069BB
S31508003190401E2061E068401EE06000F069FB28469A
S315080031A0FFF7A3FFE0680028EAD138680128F9D9B3
S315080031B0C9F80080BFF34F8FBFF36F8FF2E70000A7
S315080031C0D01300204400002004ED00E003460098D8
S315080031D029B10260C0E90F31012100F067BD006026
S315080031E0F8E72DE9F0479A46DDE9098481466FF04C
S315080031F00303206B03EB82021044089D20F00706A8
S31508003200700707D0502080F31188BFF34F8FBFF3A4
S315080032106F8FFEE723180A5C83F834200A5C12B124
S31508003220401C1028F6D3002784F84370052D00D3D8
S315080032300425E562C4E91157201D00F0D2FA04F10D
S31508003240180000F0CEFA2461C5F105006462A06199
S31508003250E76484F8507052464946304600F054FAFE
S315080032602060B8F1000F01D0C8F80040BDE8F0872B
S315080032702DE9F0471E46DDE9089417460D008046FD
S315080032800ED0002C14D0FFF7BBFEC4F80080C4E9AA
S315080032900657C4E90869201DBDE8F04700F0A1BA41
S315080032A0502080F31188BFF34F8FBFF36F8FFEE76F
S315080032B0BDE8F08730B5114900E011460A68824238
S315080032C0FBD34B685C18844203D1406818444860B5
S315080032D0084643681C18944209D1084C103C2468D7
S315080032E0A24209D052681A4442600A68126802600B
S315080032F0814200D0086030BD0460F9E73000002044
S3150800330070B5002441600B4D0061914206D8D11A70
S315080033108269914206D2011D686807E09A4203D283
S31508003320994201D3012403E0011D286800F05CFAE4
S31508003330204670BD8000002010B5044600F078FADB
S31508003340A06B28B15FF0000400F092FA204610BD89
S315080033500124F9E730B587B02C4D4EE004980028D3
S315080033604BDB069C606910B1201D00F008FA02A824
S3150800337000F0B8F8024604980A283ED2DFE800F0C2
S315080033800505053D263705053D260598A169034629
S3150800339001442046FFF7B4FF00B3616A2046884718
S315080033A0E069012829D1002000900598A169002329
S315080033B042181946204601F0BBF878B9502080F328
S315080033C01188BFF34F8FBFF36F8FFEE70598A06193
S315080033D028B1811813462046FFF792FF0DE05020CA
S315080033E080F31188BFF34F8FBFF36F8FFEE794F812
S315080033F0280010B9204600F04FFA002204A9A86850
S3150800340000F0A6FD0028A9D107B030BD8000002035
S315080034102DE9FC410F46054600F08AFB01A800F09D
S3150800342061F80446019818B100F0BEFFBDE8FC81BA
S31508003430224EAFB170680068A8B30027291B3A4628
S31508003440B06800F0A7FA00F0AFFF0028EED11C49DB
S315080034504FF080500860BFF34F8FBFF36F8FE5E7DB
S31508003460A542EBD800F0A0FF30682746C068C468BC
S31508003470201D00F084F9E069012810D1A0692B46C7
S3150800348041193A462046FFF73BFF40B10020034664
S31508003490014600902A46204601F04AF820B1616AA2
S315080034A020468847C2E707E0502080F31188BFF31B
S315080034B04F8FBFF36F8FFEE70127BFE7800000201D
S315080034C004ED00E006484168096829B14168C96801
S315080034D0C9684968016370474FF0FF31FAE7000091
S315080034E04400002070B5054600F06EFE064E044600
S315080034F03069844203D200F009F8012000E0002078
S3150800350028602046346170BD80000020F8B5194D4A
S315080035101FE0C068C4680668201D00F030F9616ABB
S3150800352020468847E069012813D1A0693044B04293
S3150800353006D924616060211D286800F055F908E065
S3150800354000200346014600903246204600F0F0FF70
S3150800355038B1286801680029DBD16968C5E9001017
S31508003560F8BD502080F31188BFF34F8FBFF36F8FDC
S31508003570FEE700008000002008484068401C4FF025
S31508003580500080F3118804D0BFF34F8FBFF36F8FBD
S31508003590FEE7BFF34F8FBFF36F8FFEE738000020BB
S315080035A0074C2068016841B1C0680021D0F80000C6
S315080035B0FFF72EFFFFF7CEFEF3E701210020F7E71E
S315080035C0800000202DE9F041044600F031F994F915
S315080035D0455004F1240609E0606A48B1304600F017
S315080035E0A9FE08B100F026FA6D1E6DB2002DF3DCB7
S315080035F04FF0FF3684F8456000F03AF900F018F904
S3150800360094F9445004F1100709E0206948B1384696
S3150800361000F090FE08B100F00DFA6D1E6DB2002D97
S31508003620F3DC84F84460BDE8F04100F021B90000FD
S315080036302DE9F0410546002700F07AFA314E306848
S3150800364008B9FFF76DFDF06805424BD1C5B30835DB
S3150800365068070ED005F00700C0F1080005446807A2
S3150800366007D0502080F31188BFF34F8FBFF36F8FB9
S31508003670FEE72DB37068854234D8224810300146DB
S315080036800C6801E020460C466168A94202D221680E
S315080036900029F7D131688C4224D007682168016077
S315080036A060680837411B10290FD96019420708D0EE
S315080036B0502080F31188BFF34F8FBFF36F8FFEE75B
S315080036C010E041606560FFF7F5FD61687068401AB3
S315080036D07060B268904200D2B060F0680143002082
S315080036E0C4E9000100F060FE780707D0502080F397
S315080036F01188BFF34F8FBFF36F8FFEE73846BDE8DB
S31508003700F08100002000002010B5031F4FF08074E0
S315080037101C601B1F21F001011960191F024B0B6069
S31508003720143940380A6010BD7935000870B50E495D
S315080037304FF0804440F2B63510F1FF4F09D2FCF73E
S31508003740C8FDFCF71DFEE0636420FFF7EEFA25646A
S3150800375070BDFCF769FDFCF713FE20646420FFF7D3
S31508003760E4FAE56370BD000000806D4410B5C16AD7
S3150800377004468847A069BDE81040FFF7D7BFD0E9DF
S31508003780013201699A60D0E901235A604A68824287
S3150800379001D182684A60002202610868401E0860FA
S315080037A008687047034B036003F1540008608020E3
S315080037B010607047F4000020034B036003F15400C7
S315080037C008608020106070474803002000F1080157
S315080037D04FF0FF32C0E90112C160016100210160AA
S315080037E0704700210161704730B50B685A1C02D03A
S315080037F000F1080202E0026904E0224654682568DE
S315080038009D42FAD953684B6099608A605160086195
S315080038100168491C016030BD42684A6093688B6044
S3150800382093685960916008610168491C0160704796
S31508003830502080F31188BFF34F8FBFF36F8F0A496B
S315080038404868401C486001280CD10848006810F0F8
S31508003850FF0F07D0502080F31188BFF34F8FBFF3B7
S315080038606F8FFEE7704700003800002004ED00E087
S315080038700849486828B1401E486001D180F311887C
S315080038807047502080F31188BFF34F8FBFF36F8FB7
S31508003890FEE700003800002070B5002827D0144D38
S315080038A0A0F108046168E868014207D1502080F356
S315080038B01188BFF34F8FBFF36F8FFEE722683AB1C7
S315080038C0502080F31188BFF34F8FBFF36F8FFEE749
S315080038D08143616000F02CF9606869680844686093
S315080038E02046FFF7E7FCBDE8704000F05DBD70BDFF
S315080038F0200000204FF0E020002101618161054988
S315080039004FF47A720968B1FBF2F1491E4161072149
S31508003910016170471000002010B5FCF73BFC114907
S3150800392010280ED300F1E02090F8F0030A789042B0
S3150800393007D2502080F31188BFF34F8FBFF36F8FE4
S31508003940FEE709480068896800F4E060884207D9FC
S31508003950502080F31188BFF34F8FBFF36F8FFEE7B8
S3150800396010BD0000380000200CED00E010B5084B33
S31508003970002200BF53F832401CB1521C082AF9D362
S3150800398010BD43F8321003EBC201486010BD0000B9
S31508003990F012002070B515460E460446FFF748FF9C
S315080039A094F944100020491C01D184F8440094F984
S315080039B04510491C01D184F84500FFF759FFA06B53
S315080039C028B92A46314604F1240000F051F8204669
S315080039D0BDE87040FFF7F6BD10B5020014D00F48D9
S315080039E0806B38B1502080F31188BFF34F8FBFF337
S315080039F06F8FFEE700F09CF800211046FFF760FA8B
S31508003A0000F0D2FC002807D105494FF08050086025
S31508003A10BFF34F8FBFF36F8F10BD00004400002027
S31508003A2004ED00E002498A6A02604969416070470C
S31508003A3044000020014901204862704744000020E4
S31508003A4010B50C4650B1094909681831FFF7CCFE84
S31508003A502046BDE810400121FFF732BA502080F316
S31508003A601188BFF34F8FBFF36F8FFEE74400002026
S31508003A7070B514460D4668B10A4909681831FFF74A
S31508003A80CBFE0CB14FF0FF3521462846BDE8704005
S31508003A90FFF716BA502080F31188BFF34F8FBFF394
S31508003AA06F8FFEE74400002030B587B000240394EA
S31508003AB005AA04A903A80494FFF774FEDDE9030127
S31508003AC00094CDE90110002315A11748059A00F0C6
S31508003AD042FB164D002868631FD000F0F9FC012848
S31508003AE009D0401C19D1502080F31188BFF34F8F9D
S31508003AF0BFF36F8FFEE7502080F31188BFF34F8F17
S31508003B00BFF36F8F4FF0FF3028630120E8616C61C7
S31508003B1007B0BDE8304000F041B807B030BD00003E
S31508003B2049444C45000000006D310008440000205F
S31508003B300248816B491C81637047000044000020DD
S31508003B401448816B11B1012141627047002141621D
S31508003B508169B1FA81F1C1F11F0101EB81020E49B8
S31508003B6051F822306BB101EB820101F108034A6872
S31508003B7052684A609A4201D152684A60D168016027
S31508003B807047502080F31188BFF34F8FBFF36F8FB4
S31508003B90FEE7000044000020301300201CB526492B
S31508003BA008780190FF20087008788DF800009DF8C5
S31508003BB000009DF8002000F0F000904207D0502049
S31508003BC080F31188BFF34F8FBFF36F8FFEE79DF821
S31508003BD000001A4B00F0500018700720986005E0A6
S31508003BE09DF8002052008DF80020401E9DF8002008
S31508003BF01206F5D49860032807D0502080F3118860
S31508003C00BFF34F8FBFF36F8FFEE74FF44070986096
S31508003C10019808700A48016841F47001016001685A
S31508003C2041F070410160FFF765FE00205860FCF71F
S31508003C307BFA00201CBD000000E400E038000020EC
S31508003C4020ED00E038B5049D18B153B1CAB181B171
S31508003C5020E0502080F31188BFF34F8FBFF36F8F9A
S31508003C60FEE7502080F31188BFF34F8FBFF36F8FA5
S31508003C70FEE7502080F31188BFF34F8FBFF36F8F95
S31508003C80FEE739B1502080F31188BFF34F8FBFF399
S31508003C906F8FFEE748241C46012384F846302B46DE
S31508003CA00094FFF793FA204638BD000070B50D461C
S31508003CB0040025D0FFF7BCFDD4E90F20216802FBDC
S31508003CC0001161600021A1632168A1600A46D4E958
S31508003CD00F01401E00FB0121E16021464FF0FF3035
S31508003CE001F8440F487004F110008DB1FFF76EFD1E
S31508003CF004F12400FFF76AFDFFF7BAFD012070BD45
S31508003D00502080F31188BFF34F8FBFF36F8FFEE704
S31508003D1021690029F0D000F00DFB0028ECD00449F9
S31508003D204FF080500860BFF34F8FBFF36F8FE3E704
S31508003D3004ED00E02DE9FF4782B01D468A464FF0A4
S31508003D400008040003D0BAF1000F08D011E0502093
S31508003D5080F31188BFF34F8FBFF36F8FFEE7206C98
S31508003D6038B1502080F31188BFF34F8FBFF36F8FA0
S31508003D70FEE7022D0AD1E06B012807D0502080F318
S31508003D801188BFF34F8FBFF36F8FFEE700F00EFA6F
S31508003D903F4F4FF000094FF0805648B9049838B1A4
S31508003DA0502080F31188BFF34F8FBFF36F8FFEE764
S31508003DB0FFF73EFDA06BE16B884207D3022D05D0C5
S31508003DC00498D0B1B8F1000F1AD01EE02A46514621
S31508003DD02046FFF754F9616A19B104F1240000F08E
S31508003DE0A9FA20B13E60BFF34F8FBFF36F8FFFF77D
S31508003DF03FFD012006B0BDE8F087FFF739FD22E058
S31508003E006846FFF70FFE4FF00108FFF731FDFFF791
S31508003E108FFEFFF70DFD94F94400401C01D184F88C
S31508003E20449094F94500401C01D184F84590FFF769
S31508003E301FFD04A9684600F027F930B12046FFF7B0
S31508003E40C1FB00F0B1FA0020D4E7FFF7F1FCA06B44
S31508003E50E16B884213D1FFF70BFD04F110000499BA
S31508003E60FFF7EEFD2046FFF7ADFB00F09DFA0028B0
S31508003E709ED13E60BFF34F8FBFF36F8F98E7FFF772
S31508003E80F7FC2046FFF79EFB00F08EFA90E700004D
S31508003E9004ED00E02DE9F0471F46904689460400E8
S31508003EA003D0B9F1000F08D011E0502080F3118833
S31508003EB0BFF34F8FBFF36F8FFEE7206C38B15020EA
S31508003EC080F31188BFF34F8FBFF36F8FFEE7022F82
S31508003ED00AD1E06B012807D0502080F31188BFF380
S31508003EE04F8FBFF36F8FFEE7FFF716FD5020EFF3F6
S31508003EF0118680F31188BFF34F8FBFF36F8FA06BC6
S31508003F00E16B884206D3022F04D0002086F311887D
S31508003F10BDE8F08794F945503A4649462046FFF7EA
S31508003F20AEF8681C04D06D1C84F845500120EDE7F6
S31508003F30606A0028FAD004F1240000F0FBF9002892
S31508003F40F4D0B8F1000FF1D00121C8F80010EDE760
S31508003F502DE9F747002683B08A46040003D0BAF154
S31508003F60000F08D011E0502080F31188BFF34F8F5F
S31508003F70BFF36F8FFEE7206C38B1502080F31188AD
S31508003F80BFF34F8FBFF36F8FFEE700F00FF9DFF82F
S31508003F90F4804FF000094FF0805748B9059838B1BA
S31508003FA0502080F31188BFF34F8FBFF36F8FFEE762
S31508003FB0FFF73EFCA56BC5B151462046FFF74CF806
S31508003FC06D1EA563206950B104F1100000F0B2F926
S31508003FD028B1C8F80070BFF34F8FBFF36F8FFFF794
S31508003FE047FC012006B0BDE8F087059808B11EB168
S31508003FF006E0FFF73DFC27E06846FFF713FD0126BC
S31508004000FFF736FCFFF794FDFFF712FC94F944001E
S31508004010401C01D184F8449094F94500401C01D114
S3150800402084F84590FFF724FC05A9684600F02CF8AB
S31508004030002820460AD0FFF7C5FA00F0B5F9204651
S31508004040FFF77AF90028B3D00020CBE7FFF774F919
S3150800405090B104F124000599FFF7F2FC2046FFF71A
S31508004060B1FA00F0A1F90028A2D1C8F80070BFF390
S315080040704F8FBFF36F8F9BE72046FFF7A3FA00F039
S3150800408093F995E704ED00E02DE9F0410C460500AB
S3150800409011D0C4B1FFF7CCFB174B5A696E6820687C
S315080040A0911B471C17D02F689B6A9F4219D09642CE
S315080040B017D8012410E0502080F31188BFF34F8FE2
S315080040C0BFF36F8FFEE7502080F31188BFF34F8F41
S315080040D0BFF36F8FFEE70024FFF7CAFB2046BDE853
S315080040E0F081884205D9401A20602846FFF79AFCD5
S315080040F0F1E700202060DCE7440000202DE9FF5F9F
S315080041008346DDE90E87994616468A469000FFF7EC
S315080041108FFA05001CD05420FFF78AFA040014D041
S315080041200020256384F85100CDE90240CDE90087D7
S315080041304B46324651465846FFF753F82046FEF797
S31508004140F7FE012004B0BDE8F09F2846FFF7A4FB60
S315080041504FF0FF30F6E7F0B585B0DDE90B640A9D50
S31508004160A6B1DCB1542700972663022684F851606D
S31508004170002604AFCDE90246CDE90057FFF731F82E
S315080041802046FEF7D5FE049805B0F0BD502080F312
S315080041901188BFF34F8FBFF36F8FFEE7502080F370
S315080041A01188BFF34F8FBFF36F8FFEE70548C169CC
S315080041B019B1806B18B100207047012070470220A2
S315080041C0704700004400002001484069704700001D
S315080041D0440000202DE9F0412E4C0027A06B40B189
S315080041E0206A401C2062606A00B101273846BDE893
S315080041F0F0816669761C666113D16068006838B11B
S31508004200502080F31188BFF34F8FBFF36F8FFEE7FF
S315080042106068A1686160A060A06A401CA062FFF7A0
S3150800422051F9206BDFF87080864209D36068006810
S3150800423080B16068C068C568686886420DD2206328
S315080042402068C06A00EB800158F821000128CAD905
S315080042500127C8E74FF0FF30F1E7281DFFF78FFA6F
S31508004260A86A18B105F11800FFF789FAE86A01216A
S31508004270A26981401143A16100EB800108EB81002E
S31508004280291DFFF7C9FAE86A2168C96A8842CDD3A9
S315080042900127CBE7440000203013002070B5040046
S315080042A04FF0000140D0214D2868844207D05020A5
S315080042B080F31188BFF34F8FBFF36F8FFEE7A06CB3
S315080042C038B1401EA064636CE26A9A422CD040B1B1
S315080042D02AE0502080F31188BFF34F8FBFF36F8F0A
S315080042E0FEE7201DFFF74BFA114A012150B9E06A93
S315080042F000EB800352F8233023B9AB6901FA00F0CA
S315080043008343AB61606CE062C0F10500A061E06ABE
S31508004310AB6981401943A96100EB800002EB80007C
S31508004320211DFFF779FA0121084670BD44000020D7
S31508004330301300202DE9F041C068C468ACB104F11F
S3150800434018000746FFF71BFA154DA86B0126A0B102
S3150800435039461448FFF760FAE06A2968C96A88424C
S315080043601CD901206E62BDE8F081502080F31188C7
S31508004370BFF34F8FBFF36F8FFEE7201DFFF7FFF9DF
S31508004380E16AAA6906FA01F01043A86101EB810007
S3150800439004498C3901EB8000211DDBE70020E2E7A8
S315080043A044000020BC1300202DE9F0472C4D0024C2
S315080043B02746A86B38B1FFF73BFAA86B401EA863DF
S315080043C0A86B40B146E0502080F31188BFF34F8FA9
S315080043D0BFF36F8FFEE72969224E0120D1B3A6F1FC
S315080043E08C0980463068E8B1F068C46804F11800A2
S315080043F0FFF7C5F9201DFFF7C2F9E06AAA6908FAAE
S3150800440000F11143A96100EB800109EB8100211D30
S31508004410FFF702FAE06A2968C96A8842E2D3C5F852
S315080044202480DFE70CB1FFF74DF82C6A44B1464605
S31508004430FFF7D0FE00B16E62641EF9D10020286233
S31508004440686A38B10849012738070860BFF34F8FF3
S31508004450BFF36F8FFFF70CFA3846BDE8F087000008
S3150800446044000020BC13002004ED00E02DE9FC47C1
S3150800447081461E46174688462C200A9DFFF7D8F81F
S3150800448004000AD0CDE9005433463A464146484628
S31508004490FEF7EEFE002084F828002046BDE8FC87DB
S315080044A07CB52C26DDE90654009644B1CDE90054C6
S315080044B0FEF7DEFE012084F8280020467CBD502049
S315080044C080F31188BFF34F8FBFF36F8FFEE70000AD
S315080044D010B586B0FEF794FD114CA068B8B100205F
S315080044E00390049005AA04A903A8FFF765F9DDE976
S315080044F0032102208DE8070000230AA10B48059A2C
S31508004500FFF729FEE06010B106B0012010BD50206B
S3150800451080F31188BFF34F8FBFF36F8FFEE700005C
S3150800452080000020546D722053766300A135000880
S31508004530FEB51E4613460200089D4FF0000014D033
S31508004540124CA768002F0FD0CDE900130292062956
S3150800455015DAFFF72BFE02284FF000030DD00022D4
S315080045606946A068FFF7E6FBFEBD502080F3118878
S31508004570BFF34F8FBFF36F8FFEE72A46F0E700239E
S31508004580324669463846FFF785FCFEBD80000020A6
S315080045908D2300080000000009050008000000003F
S315080045A010460008E527000800000000000000008B
S315080045B0800000000000000000000000044600081B
S315080045C0F7260008010000000000000000010000B6
S315080045D000000000000000000000000000000000CD
S315080045E0010203040607080900000000010203048B
S315080045F0010202030405060708090A0B0C0D0E0F33
S31508004600101000005069645F5461736B000000006D
S3150800461064656661756C745461736B003C4600088A
S3150800462000000020CC000000982B0008084700086E
S31508004630CC0000205C190000A82B00080000000030
S315080046400000000000000000000000000024F40044
S31508004650010000001000000000000000000000003B
S31508004660000000000000000000000000000000003C
S315080046700000000000000000AAAAAAAA0000000084
S31508004680000000000000000000000000000000001C
S31508004690000000000000000000000000000000000C
S315080046A000000000000000000000000000000000FC
S315080046B000000000000000000000000000000000EC
S315080046C000000000000000000000000000000000DC
S315080046D000000000000000000000000000000000CC
S315080046E000000000000000000100000000000000BB
S315080046F0010000000E000000000000000000FFFF9F
S30D08004700004001000000000062
S705080000ED05
